:10000000AFC10000DEC10000DCC10000DAC10000A9
:10001000D8C10000D6C10000D4C10000D2C1000088
:10002000D0C10000CEC10000CCC10000CAC1000098
:10003000C8C100002BC20000C4C10000C2C1000042
:10004000C0C10000BEC10000BCC10000BAC10000B8
:10005000B8C10000B6C10000B4C100000C949909F9
:10006000B0C100000C94ED0C0C94230DAAC100004B
:10007000A8C10000A6C10000A4C10000A2C10000E8
:10008000A0C100009EC100009CC100009AC10000F8
:100090000C94980D0C94CE0D94C1000092C10000F8
:1000A00090C100008EC100008CC100008AC1000018
:1000B00088C1000086C1000084C1000082C1000028
:1000C00080C100007EC100007CC100007AC1000038
:1000D00078C1000076C1000074C1000072C1000048
:1000E00070C10000D507E607F40707080E083708B7
:1000F0003F0847084E085408540854085408540848
:10010000540854085408540854085408540854080F
:1001100054085408540854085408540854085408FF
:1001200054085408D507DF07E607F40707080E0848
:10013000210828082F08D60AD90AC80ACC0AD20AE8
:10014000100BDD0AE10AE70AEB0AEF0AF50AF90AE1
:10015000FD0A100B030B070B0B0B00000A0B020927
:100160000C0D0E0807030401000000000000000051
:10017000000000000000000000000000000000007F
:10018000000000000000121110000000000000003C
:10019000000000000000000000000000000000005F
:1001A0000102102020080810204010204080020189
:1001B000020108040201010204081020408080406E
:1001C000201008040201800402018040201008046D
:1001D000020108040201010204081020408001020B
:1001E00004081020408005050505070508080808D3
:1001F000020202020A0A08080404040401010101BF
:1002000001010101030303030303030304070707B9
:100210000C0C0C0C0C0C0C0C02020202060606065E
:10022000060606060B0B0B0B0B0B0B0B000022003C
:10023000250028002B002E003100340002010000B0
:10024000050108010B0100002100240027002A00FD
:100250002D003000330001010000040107010A01F4
:1002600000407A10F35A00A0724E18090010A5D46D
:10027000E80000E87648170000E40B54020000CACA
:100280009A3B000000E1F505000080969800000010
:1002900040420F000000A08601000000102700006F
:1002A0000000E803000000006400000000000A00F5
:1002B000000000000100000000002C76D888DC67F8
:1002C0004F0823DFC1DFAE59E1B1B796E5E3E45350
:1002D000C63AE651997696E8E6C28426EB898C9B6D
:1002E00062ED407C6FFCEFBC9C9F40F2BAA56FA50D
:1002F000F490055A2AF75C936B6CF9676DC11BFC8F
:10030000E0E40D47FEF520E6B500D0ED902E0300A9
:10031000943577050080841E080000204E0A0000F6
:1003200000C80C333333330F986E12831141EF8DB5
:100330002114893BE65516CFFEE6DB18D1844B38F5
:100340001BF77C1D901DA4BBE424203284725E2226
:100350008100C9F124ECA1E53D270004550D000EF4
:1003600011241FBECFEFD1E2DEBFCDBF00E00CBF36
:1003700012E0A0E0B2E0E0EFFDE200E00BBF02C05F
:1003800007900D92A23AB107D9F724E0A2EAB2E0B1
:1003900001C01D92AE38B207E1F713E0C0E6D3E02A
:1003A00000E006C022970109FE010BBF0E942E1239
:1003B000CA35D10780E00807A9F70E94A1100C9464
:1003C000F6161ECE82E08093B0009CE79093B300B7
:1003D00096E09093B100809370007894089526E0A1
:1003E00040E855E260E070E080E593E00E948D0C0B
:1003F00026E040E855E260E070E08DEE93E00E9478
:100400008D0C61E08BE00E94110B61E08CE00E949A
:10041000110B60E086E30E94110B60E087E30E940D
:10042000110B60E088E30E94110B60E089E30E94F9
:10043000110B60E08AE30E94110B60E088E00E94EB
:10044000110B60E08BE00E944A0B60E08CE00E94A0
:100450004A0BB8DF60EE7EE280E090E0E3D762E135
:1004600072E080E593E00E94AA0E67E172E080E509
:1004700093E00E94AA0E61E272E080E593E00E94A0
:10048000AA0E68EE73E080E090E0CCC71F920F9256
:100490000FB60F9211240BB60F922F933F934F93E9
:1004A0005F936F937F938F939F93AF93BF93CF93FC
:1004B000DF93EF93FF93F89489E30E94990A909356
:1004C0003403809333038091190390911A03A09110
:1004D0001B03B0911C030296A11DB11D809319034B
:1004E00090931A03A0931B03B0931C03409119032C
:1004F00050911A0360911B0370911C0380911503A6
:1005000090911603A0911703B0911803EA01C81B3C
:10051000D90B2091330330913403809109029091DB
:100520000A02281739071CF580910F0290911002DA
:1005300065E070E00E94C711CB01880F991F860FFC
:10054000971F8C179D079CF420913303309134033F
:1005500080910B0290910C022817390744F4809186
:1005600033039091340390930C0280930B022091FB
:100570003303309134038091090290910A0282176B
:10058000930764F4209133033091340380910D027A
:1005900090910E02821793070CF48FC0CB3FD105C8
:1005A0000CF440C020913303309134038091090250
:1005B00090910A0282179307ACF580913203811162
:1005C00031C080910F029091100265E070E00E94AE
:1005D000C711CB01880F991F860F971F8C179D0796
:1005E0000CF474C01FC080910F0290911002909380
:1005F0003103809330038091300390913103820F57
:10060000931F6AE070E00E94B3119B0140E050E04C
:1006100060E67AEE80E090E00E94FC1130933603B1
:1006200020933503209133033091340380910902E4
:1006300090910A022817390724F48091320381111E
:10064000ACC0C53CD9401CF180E092E090930A0216
:100650008093090290930E0280930D0290930C02F6
:1006600080930B028091190390911A03A0911B03B0
:10067000B0911C038093150390931603A093170366
:10068000B093180381E08093060210921D037894C2
:10069000FF91EF91DF91CF91BF91AF919F918F919A
:1006A0007F916F915F914F913F912F910F900BBE72
:1006B0000F900FBE0F901F9018958091330390916B
:1006C000340390930E0280930D0268CF81E08093F3
:1006D00032034091190350911A0360911B037091EA
:1006E0001C038091150390911603A0911703B091FC
:1006F0001803481B590B5093100240930F0280912E
:10070000190390911A03A0911B03B0911C038093CD
:10071000150390931603A0931703B09318038091C9
:100720001D03882399F010921D0380E090E0209132
:100730000F0230911002FC01EE0FFF1FE25EFC4F32
:100740003183208301968A30910589F780910602D2
:10075000882331F01092060281E080931D0397CF29
:10076000E0E0F0E020E030E0CF010196DC01AA0FEC
:10077000BB1FA25EBC4F4D915C91EE0FFF1FE25E6E
:10078000FC4F5183408340815181240F351F8930B4
:10079000910509F428CFFC01E7CF10923203809134
:1007A0000D0290910E0220910B0230910C02821BDF
:1007B000930B909308028093070280910702909117
:1007C000080220910B0230910C0297FD019695953D
:1007D0008795820F931F90930A028093090280915C
:1007E000090290910A0290930E0280930D0280916B
:1007F000090290910A0290930C0280930B0221CF80
:1008000082EA92E063C1CF93DF93CDB7DEB76A97F8
:100810000FB6F894DEBF0FBECDBF8DEE93E06FD75D
:10082000892BA9F08DEE93E083D7682F82EA92E0BE
:1008300044D4882391F320E030E0AE014D5E5F4F59
:10084000BE01695E7F4F82EA92E00BD5E6CF4F8909
:10085000588D698D7A8D26E0CE010D960E941F106D
:100860004B895C896D897E8926E0CE0107960E94BE
:100870001F1067E172E080E593E00E94AA0E64EF2A
:1008800071E080E090E0CED563E372E080E593E034
:100890000E94AA0E64EF71E080E090E0C3D5BE0133
:1008A000635F7F4FCE0101960E94011069E472E000
:1008B000CE0101960E948810BE01695F7F4F0E94A1
:1008C0007710BC0180E593E00E949A0ECE0101965C
:1008D0000E94850F64EF71E080E090E0A3D5609105
:1008E0003503709136034AE050E080E593E00E94C2
:1008F0006F0F64EF71E080E090E094D56AE180E5ED
:1009000093E00E94BA0E64EF71E080E090E08AD537
:10091000CE0107960E94850FCE010D960E94850F8D
:100920006A960FB6F894DEBF0FBECDBFDF91CF91B0
:1009300008958AE3FED590933803809337034AE005
:1009400050E0BC0180E593E00E946F0F60E08BE017
:10095000A1D660E08CE09ED686E3EBD5909346036B
:100960008093450387E3E5D5909344038093430345
:1009700088E3DFD590934203809341036BE472E0F8
:1009800080E593E00E948F0E6091450370914603CD
:100990004AE050E080E593E00E94680F6DE472E069
:1009A00080E593E00E948F0E6091430370914403B1
:1009B0004AE050E080E593E00E94680F6FE472E047
:1009C00080E593E00E948F0E609141037091420395
:1009D0004AE050E080E593E00E94680F80E593E0F4
:1009E0000E94970E809145039091460320913F030A
:1009F00030914003821B930B97FF03C09195819523
:100A0000910905971CF5809143039091440320912F
:100A10003D0330913E03821B930B97FF03C09195DA
:100A200081959109059794F4809141039091420337
:100A300020913B0330913C03821B930B97FF03C033
:100A400091958195910905970CF43BC080913903EC
:100A500090913A03892BB9F0809137039091380334
:100A60008536910584F08091350390913603CBDE75
:100A700061E08CE00FD660E08BE00CD660ED77E0B3
:100A800080E090E0CFD4809145039091460390930D
:100A9000400380933F0380914303909144039093DC
:100AA0003E0380933D0380914103909142039093D4
:100AB0003C0380933B0381E090E090933A03809362
:100AC000390360ED77E080E090E0ACC40F931F93B2
:100AD000FC010FEF1FEF9801008311832283338302
:100AE00010861186128613864FEF59EC6AE97BE374
:100AF000408B518B628B738B408F518F628F738FC2
:100B000040A351A362A373A340A751A762A773A7F1
:100B100040AB51AB62AB73AB00AF11AF22AF33AFA1
:100B2000DC01A05CBF4F8FEF90E011969C938E93F9
:100B300014960D931D932D933C93139718960D9334
:100B40001D932D933C93139718961C9211961C920B
:100B5000509682E08C9311961C9211961C921196DD
:100B60001C9211961D921D921D921C921397149621
:100B700011961C921E9212961D921C92EA5AFF4FD9
:100B800010821F910F9108952FEB260F862F992722
:100B900087FD9095263010F4C7970895615666300A
:100BA00018F4875591090895C09708950F931F93DE
:100BB000FB0160E070E0CB01019120ED200F2A30B5
:100BC000A0F4AAE0B0E09B01AC010E941E12112724
:100BD00007FD1095212F312F600F711F821F931F6A
:100BE0006053710981099109E7CF1F910F91089511
:100BF0000F931F93CF93FC01EA5AFF4FC1E020816E
:100C00002D3219F0C0E08F0103C08C01095A1F4F2B
:100C1000B801CCDF9B01AC01A4E6B0E00E941E123B
:100C2000F801DF01219130ED320F3A30D0F32E324E
:100C300069F511962C91119730ED320F3A3030F55D
:100C4000332727FD3095205331094AE0429F800128
:100C5000439F100D1124222717FD2095322F600F7E
:100C6000711F821F931F12960C9120ED200F2A30C6
:100C700068F4112707FD109500531109222717FD6D
:100C80002095322F600F711F821F931FCC2339F0E4
:100C900090958095709561957F4F8F4F9F4FCF9125
:100CA0001F910F9108954F925F926F927F928F9252
:100CB0009F92AF92BF92CF92DF92EF92FF92CF932B
:100CC000DF93EC01CA5ADF4FBE0170DF2B013C01FC
:100CD00024E630E040E050E00E94DA119B01AC01D4
:100CE00060EA76E881E090E00E94A4116B017C014B
:100CF000FE01819190ED980F9A30D8F38E3219F55C
:100D0000EF0180E1882E87E2982EA12CB12CA991C9
:100D100080ED8A0F8A30B8F4BB27A7FDB095D09735
:100D2000A50194010E942812C60ED71EE81EF91EC6
:100D3000C501B4012AE030E040E050E00E94DA1141
:100D400049015A01E4CFC701B6016D5F7F4F8F4F54
:100D50009F4F26E030E040E050E00E94DA11690148
:100D60007A01C301B20124E630E040E050E00E9485
:100D7000DA1160E472E48FE090E00E94A411C60EE4
:100D8000D71EE81EF91EC701B601DF91CF91FF9073
:100D9000EF90DF90CF90BF90AF909F908F907F901B
:100DA0006F905F904F900895DB01FA018D91882339
:100DB00019F091918917D1F3992787FD909508959E
:100DC000CF92DF92EF92FF921F93CF93DF93EC01CC
:100DD000FC01EB5AFF4F1081112309F4A7C0319693
:100DE0006081D2DE182FFE01E95AFF4F6081CE01EB
:100DF000CBDE40E1149F800D1124FE01EC5AFF4F21
:100E0000908189138AC074961081112309F44CC112
:100E1000359680819181019691838083B5978081F9
:100E20009181A281B381349780839183A283B3831C
:100E30003C9680819181A281B38134978083918394
:100E4000A283B383799680818823A1F1813009F050
:100E50002BC18C819D81AE81BF8188839983AA83B8
:100E6000BB838C859D85AE85BF8588879987AA873A
:100E7000BB878C899D89AE89BF89888B998BAA8B0A
:100E8000BB8B8C8D9D8DAE8DBF8D888F998FAA8FDA
:100E9000BB8F8CA59DA5AEA5BFA588A799A7AAA71E
:100EA000BBA78CA99DA9AEA9BFA988AB99ABAAABDA
:100EB000BBABFAC08CA19DA1AEA1BFA188A399A391
:100EC000AAA3BBA38C819D81AE81BF8188839983B6
:100ED000AA83BB838C899D89AE89BF89888B998BB6
:100EE000AA8BBB8B8C8D9D8DAE8DBF8D888F998F7E
:100EF000AA8FBB8FFE01E05CFF4FDE01AE5BBF4FF0
:100F00008D919C91918380838CAD9DADAEADBFAD35
:100F100088AF99AFAAAFBBAFC7C0C159DF4F8881B7
:100F2000998101969983888310E0BEC0FC01EA593B
:100F3000FF4F30818B599F4F7C0131111BC06E01D7
:100F400096E5C90ED11C41E552E0B601CE012CDF79
:100F5000892B11F481E00BC047E552E0B601CE01C8
:100F600023DF892B19F4F70110829EC082E0D7019C
:100F70008C939AC0DC01EC91E23009F495C0CE016B
:100F80008A5A9F4FDC012C91222309F48DC0B0E2D4
:100F9000EB9FF0011124E32B3197E932F10508F0C2
:100FA00083C0EE58FF4F0C941812CE0121DE6C83E3
:100FB0007D838E839F8307D2C85BDF4F10C0C859E3
:100FC000DF4F81E0213409F057C057C0CE016BDEFE
:100FD0006C8B7D8B8E8B9F8BF6D1C05BDF4F6883D4
:100FE00079838A839B8360C0233509F05DC08C8937
:100FF0009D89AE89BF89B095A095909581959F4FA9
:10100000AF4FBF4F8C8B9D8BAE8BBF8B4DC0CE0136
:101010004ADE6C8F7D8F8E8F9F8F46C0273509F0FB
:1010200043C08C8D9D8DAE8DBF8DB095A095909554
:1010300081959F4FAF4FBF4F8C8F9D8FAE8FBF8FCE
:1010400033C0CE01D5DD6CA77DA78EA79FA72CC08E
:10105000CE01CEDD6CAB7DAB8EAB9FAB25C0BC01B2
:10106000CE01A4DD6C877D878E879F871DC0C85900
:10107000DF4F81E021330CF480E0888315C00E94AB
:101080006C14CE5BDF4F9927998388830DC0CE0106
:10109000AFDD6CAF7DAF8EAF9FAF06C0CE01A8DDD8
:1010A0006CA37DA38EA39FA3812FDF91CF911F916E
:1010B000FF90EF90DF90CF900895CF92DF92EF9264
:1010C000FF920F931F93CF93DF931F92CDB7DEB79D
:1010D0006C01262FFC01E759FF4F4081518162814D
:1010E00073814F5F5F4F6F4F7F4F408351836283A8
:1010F00073838C0109591F4F8B5A9F4F7C012432F7
:1011000079F12CF42A3069F02D30E1F50AC02A3249
:1011100041F02C32B9F5F601EC5AFF4F808182275D
:101120008083F80180818F3058F4F601E80FF11DBB
:10113000EA5AFF4F1082C601298342DE298101C08D
:1011400080E0F601EA59FF4F90819F5F9083F8019C
:10115000108291E02A3209F090E0F70190832AC0D2
:10116000F8011082F601EA59FF4F1082729710823F
:10117000719682E08083F7011082F601E859FF4FF3
:10118000108217C0F80180818E3048F491E0980FEA
:101190009083F601E80FF11DEA5AFF4F2083F70113
:1011A0008081811106C0F601EC5AFF4F80818227B1
:1011B000808380E00F90DF91CF911F910F91FF907E
:1011C000EF90DF90CF900895CF92DF92EF92FF9251
:1011D0000F931F93CF93DF93E9016115710551F0D0
:1011E000FC01C088D188E288F388FB01C082D182EB
:1011F000E282F3824115510551F0FC01C08CD18C83
:10120000E28CF38CFA01C082D182E282F3822097D1
:10121000F9F08C01045B1F4FF80180819181A2815C
:10122000B3818F3F9F4FAF4FBF4F59F0CCD0F801E4
:101230000081118122813381601B710B820B930B22
:1012400003C06FEF7FEFCB01688379838A839B8331
:10125000DF91CF911F910F91FF90EF90DF90CF9092
:101260000895AF92BF92CF92DF92EF92FF920F93C9
:101270001F93CF93DF93CDB7DEB728970FB6F894BF
:10128000DEBF0FBECDBF5B018A01AE014F5F5F4F76
:10129000BE016B5F7F4F98DFCD80DE80EF80F884EA
:1012A0008FEFC81689ECD8068AE9E8068BE3F806C2
:1012B00049F0C701B601BCD720E034E244E759E465
:1012C0004DD704C060E070E08AE794E4F5016083E4
:1012D000718382839383FFEFCF16F9ECDF06FAE97F
:1012E000EF06FBE3FF0659F069817A818B819C81CF
:1012F0009FD720E034E244E759E430D704C060E0EF
:1013000070E08AE794E4F8016083718382839383B9
:1013100028960FB6F894DEBF0FBECDBFDF91CF91F8
:101320001F910F91FF90EF90DF90CF90BF90AF9003
:1013300008951F920F920FB60F9211242F933F938F
:101340008F939F93AF93BF938091480390914903EC
:10135000A0914A03B0914B033091470323E0230F40
:101360002D3720F40196A11DB11D05C026E8230FDD
:101370000296A11DB11D20934703809348039093CB
:101380004903A0934A03B0934B0380914C0390917F
:101390004D03A0914E03B0914F030196A11DB11DC5
:1013A00080934C0390934D03A0934E03B0934F034F
:1013B000BF91AF919F918F913F912F910F900FBE51
:1013C0000F901F9018952FB7F89460914803709173
:1013D000490380914A0390914B032FBF08953FB773
:1013E000F89480914C0390914D03A0914E03B091DD
:1013F0004F0326B5A89B05C02F3F19F00196A11DEC
:10140000B11D3FBF6627782F892F9A2F620F711D5C
:10141000811D911D42E0660F771F881F991F4A9515
:10142000D1F70895CF92DF92EF92FF92CF93DF939F
:101430006B017C01D4DFEB01C114D104E104F104A0
:1014400079F08BD6CCDF6C1B7D0B683E7340A0F32C
:1014500081E0C81AD108E108F108C851DC4FECCF8F
:10146000DF91CF91FF90EF90DF90CF900895789427
:1014700084B5826084BD84B5816084BD85B5826099
:1014800085BD85B5816085BDEEE6F0E08081816037
:101490008083E1E8F0E01082808182608083808137
:1014A00081608083E0E8F0E0808181608083E1EB0F
:1014B000F0E0808184608083E0EBF0E080818160F7
:1014C0008083E1E9F0E080818260808380818160B7
:1014D0008083E0E9F0E0808181608083E1EAF0E0F0
:1014E000808182608083808181608083E0EAF0E097
:1014F000808181608083E1E2F1E08081826080838D
:10150000808181608083E0E2F1E08081816080837E
:10151000EAE7F0E08081846080838081826080835C
:101520008081816080838081806880831092C10087
:101530000895863308F0865320917B00982F987089
:10154000277F922B90937B0087702091110290E46B
:10155000299F90011124822B80937C0080917A0036
:10156000806480937A0080917A0086FDFCCF809120
:1015700078002091790090E0922B089590E0FC0192
:101580003197E231F10508F04BC0E556FF4F50C7E7
:10159000809180008F7703C0809180008F7D809341
:1015A0008000089580918000877FF9CF84B58F7780
:1015B00002C084B58F7D84BD08958091B0008F777F
:1015C00003C08091B0008F7D8093B000089580911A
:1015D00090008F7707C0809190008F7D03C080912D
:1015E0009000877F8093900008958091A0008F776E
:1015F00007C08091A0008F7D03C08091A000877FED
:101600008093A0000895809120018F7707C080917A
:1016100020018F7D03C080912001877F809320016E
:101620000895CF93DF9390E0FC01E056FE4F2491A4
:10163000FC01EA51FE4F8491882349F190E0880F24
:10164000991FFC01EA5BFD4FA591B491845D9D4F0C
:10165000FC01C591D4919FB7611108C0F8948C9199
:10166000209582238C93888182230AC0623051F4B2
:10167000F8948C91322F309583238C938881822B20
:10168000888304C0F8948C91822B8C939FBFDF9148
:10169000CF9108950F931F93CF93DF931F92CDB7F0
:1016A000DEB7282F30E0F901E65AFE4F8491F901A8
:1016B000E056FE4F1491F901EA51FE4F04910023C8
:1016C000C1F0882319F0698359DF6981E02FF0E0C8
:1016D000EE0FFF1FE45DFD4FA591B4919FB7F89405
:1016E0008C91611103C01095812301C0812B8C93D3
:1016F0009FBF0F90DF91CF911F910F910895FC0133
:10170000818D228D90E0805C9F4F821B91098F73A9
:1017100099270895FC01918D828D981731F0828D63
:10172000E80FF11D858D90E008958FEF9FEF0895EC
:10173000FC01918D828D981761F0828DDF01A80FD9
:10174000B11D5D968C91928D9F5F9F73928F90E0FB
:1017500008958FEF9FEF08958CE49DE0892B39F079
:1017600080E090E0892B19F097D1811124C087EF98
:101770009DE0892B39F080E090E0892B19F037D279
:1017800081111CC080E090E0892B41F080E090E066
:10179000892B21F00E940000811113C080E090E0AD
:1017A000892BA1F080E090E0892B81F00E9400005D
:1017B00081110AC008950E940000D9CF0E94000044
:1017C000E1CF0E940000EACF0C9400000895FC01D4
:1017D000848DDF01A80FB11DA35ABF4F2C91848DBA
:1017E00090E001968F739927848FA689B7892C93EF
:1017F000A089B1898C9180648C93938D848D98138A
:1018000006C00288F389E02D80818F7D8083089552
:10181000CF93DF93EC01888D8823C1F0EA89FB899F
:10182000808185FD05C0A889B9898C9186FD0EC08F
:101830000FB607FCF5CF808185FFF2CFA889B98963
:101840008C9185FFEDCFCE01C2DFE8CFDF91CF9144
:101850000895CF92DF92FF920F931F93CF93DF9360
:101860001F92CDB7DEB76C0181E0D60158968C93FC
:1018700058975B969C915B975C968C915C979813BC
:1018800007C05096ED91FC915197808185FD2DC048
:10189000F601038D10E00F5F1F4F0F731127F02E1D
:1018A000F601848DF81210C00FB607FCF9CFD601EF
:1018B0005096ED91FC915197808185FFF1CFC60143
:1018C000698385DF6981ECCF838DE80FF11DE35AD1
:1018D000FF4F6083D6015B960C935B975296ED9118
:1018E000FC915397808180620CC0D6015696ED9191
:1018F000FC91579760835096ED91FC9151978081B0
:101900008064808381E090E00F90DF91CF911F9100
:101910000F91FF90DF90CF900895BF92CF92DF920A
:10192000EF92FF92CF93DF93EC016A017B01B22E1D
:10193000E889F98982E08083411581EE58076105C5
:10194000710599F060E079E08DE390E0A7019601E0
:1019500031D521503109410951095695479537959F
:101960002795211580E1380790F0E889F9891082E0
:1019700060E874E88EE190E0A70196011BD5215044
:101980003109410951095695479537952795EC85B9
:10199000FD853083EE85FF852083188EEC89FD89D7
:1019A000B082EA89FB89808180618083EA89FB8932
:1019B000808188608083EA89FB8980818068808358
:1019C000EA89FB8980818F7D8083DF91CF91FF90B1
:1019D000EF90DF90CF90BF9008951F920F920FB6B7
:1019E0000F9211240BB60F922F938F939F93EF9327
:1019F000FF93E0916003F09161038081E0916603C1
:101A0000F091670382FD12C09081809169038F5F1E
:101A10008F7320916A03821751F0E0916903F0E01F
:101A2000E05BFC4F958F8093690301C08081FF913B
:101A3000EF919F918F912F910F900BBE0F900FBE42
:101A40000F901F9018951F920F920FB60F921124AE
:101A50000BB60F922F933F934F935F936F937F93A8
:101A60008F939F93AF93BF93EF93FF9380E593E0A2
:101A7000AEDEFF91EF91BF91AF919F918F917F91DA
:101A80006F915F914F913F912F910F900BBE0F90EF
:101A90000FBE0F901F90189580E593E030DE21E097
:101AA000892B09F420E0822F08951092530310929D
:101AB000520388EE93E0A0E0B0E08093540390934B
:101AC0005503A0935603B093570385E892E0909393
:101AD00051038093500385EC90E090935D038093D5
:101AE0005C0384EC90E090935F0380935E0380EC52
:101AF00090E0909361038093600381EC90E0909379
:101B000063038093620382EC90E09093650380937B
:101B1000640386EC90E090936703809366031092D1
:101B2000690310926A0310926B0310926C0308957C
:101B30001F920F920FB60F9211240BB60F922F9394
:101B40008F939F93EF93FF93E091FD03F091FE033A
:101B50008081E0910304F091040482FD12C0908121
:101B6000809106048F5F8F7320910704821751F0D4
:101B7000E0910604F0E0E351FC4F958F809306045A
:101B800001C08081FF91EF919F918F912F910F90D4
:101B90000BBE0F900FBE0F901F9018951F920F92C3
:101BA0000FB60F9211240BB60F922F933F934F93C2
:101BB0005F936F937F938F939F93AF93BF93EF93B5
:101BC000FF938DEE93E003DEFF91EF91BF91AF9114
:101BD0009F918F917F916F915F914F913F912F9145
:101BE0000F900BBE0F900FBE0F901F9018958DEEAB
:101BF00093E085DD21E0892B09F420E0822F089510
:101C00001092F0031092EF0388EE93E0A0E0B0E0B2
:101C10008093F1039093F203A093F303B093F40342
:101C200085E892E09093EE038093ED038DEC90E0D5
:101C30009093FA038093F9038CEC90E09093FC036B
:101C40008093FB0388EC90E09093FE038093FD0368
:101C500089EC90E0909300048093FF038AEC90E07D
:101C600090930204809301048EEC90E0909304041E
:101C70008093030410920604109207041092080443
:101C8000109209040895CF92DF92EF92FF920F9382
:101C90001F93CF93DF937C016A01EB0100E010E01A
:101CA0000C151D0571F06991D701ED91FC91019022
:101CB000F081E02DC7011995892B19F00F5F1F4F97
:101CC000EFCFC801DF91CF911F910F91FF90EF905F
:101CD000DF90CF9008956115710581F0DB010D90C3
:101CE0000020E9F7AD0141505109461B570BDC01BB
:101CF000ED91FC910280F381E02D199480E090E059
:101D00000895DC01ED91FC91DB0114964D915C91FD
:101D100015976D917C910280F381E02D1994DBCFB2
:101D2000DC01ED91FC910190F081E02D199461E9C5
:101D300072E0D1CF0F931F93CF93DF93EC01E1DFDC
:101D40008C01CE01F4DF800F911FDF91CF911F91A5
:101D50000F9108950F931F93CF93DF93EC01BBDF97
:101D60008C01CE01E4DF800F911FDF91CF911F9195
:101D70000F9108950F931F93CF93DF93EC01D0DF62
:101D80008C01CE01D4DF800F911FDF91CF911F9185
:101D90000F9108958F929F92AF92BF92CF92DF9250
:101DA000EF92FF920F931F93CF93DF93CDB7DEB7E0
:101DB000A1970FB6F894DEBF0FBECDBF7C01C42E35
:101DC000E52FCB01D22E19A221E02D1510F02AE02B
:101DD000D22E8E010F5D1F4F8D2C912CA12CB12C7A
:101DE0006C2D7E2FA5019401E5D28C2DD29E8019F9
:101DF0001124015011098A3014F4805D01C0895CFE
:101E0000F8018083211531054105510521F0C22ECD
:101E1000E32FCA01E5CFB801C7015DDFA1960FB678
:101E2000F894DEBF0FBECDBFDF91CF911F910F9110
:101E3000FF90EF90DF90CF90BF90AF909F908F90EA
:101E40000895CF92DF92EF92FF920F931F93CF935B
:101E5000DF93EC016A017B012115310579F4E881FA
:101E6000F9810190F081E02D642FDF91CF911F91D6
:101E70000F91FF90EF90DF90CF9019942A303105A9
:101E8000D9F477FF18C06DE24BDF8C01442755274A
:101E9000BA014C195D096E097F092AE0CE017ADF8B
:101EA000800F911FDF91CF911F910F91FF90EF90C5
:101EB000DF90CF9008952AE0B701A601CE01DF910F
:101EC000CF911F910F91FF90EF90DF90CF9062CF55
:101ED0009A01AB01662757FD6095762FB2CF0F931D
:101EE0001F93CF93DF93EC019A01AB01662757FD57
:101EF0006095762FA6DF8C01CE0119DF800F911F30
:101F0000DF91CF911F910F910895FC018081918104
:101F100070C3CF93DF93EC0188819981009709F01A
:101F200068D3198218821D821C821B821A82DF915B
:101F3000CF9108950F931F93CF93DF93EC018B0103
:101F40006F5F7F4F88819981E3D3009731F0998348
:101F500088831B830A8381E001C080E0DF91CF91F9
:101F60001F910F910895CF93DF93EC0188819981A0
:101F7000892B29F08A819B818617970758F4CE0117
:101F8000D9DF882341F08C819D81892B19F4E88168
:101F9000F981108281E0DF91CF910895EF92FF9255
:101FA0000F931F93CF93DF93EC017B018A01BA015A
:101FB000DADF811103C0CE01ACDF06C01D830C83C4
:101FC000B70188819981AED4CE01DF91CF911F9165
:101FD0000F91FF90EF900895CF93DF93EC01FB01F9
:101FE0008617970751F0608171816115710521F0A5
:101FF00044815581D3DF01C08CDFCE01DF91CF91C9
:102000000895FC01118210821382128215821482BB
:10201000E3CFCF93DF93EC016115710559F0FB011C
:1020200001900020E9F7AF0141505109461B570BC1
:10203000B5DF01C06EDFCE01DF91CF910895EF9241
:10204000FF920F931F93CF93DF93CDB7DEB7A19786
:102050000FB6F894DEBF0FBECDBF7C01CB01BA0135
:10206000F70111821082138212821582148242E0DB
:10207000420F8E010F5F1F4F04D2BC01C701C9DFA1
:10208000A1960FB6F894DEBF0FBECDBFDF91CF9102
:102090001F910F91FF90EF900895EF92FF920F9391
:1020A0001F93CF93DF93EC017B010C811D816115A0
:1020B000710511F480E014C04115510581F0040F41
:1020C000151FB80150DF8823A9F3288139818C813D
:1020D0009D81B701820F931F25D41D830C8381E05E
:1020E000DF91CF911F910F91FF90EF900895CF93C3
:1020F000DF93EC01FB014481558160817181CDDF6B
:10210000811102C0CE0105DFCE01DF91CF9108958C
:10211000CF93DF93EC016115710561F0FB01019034
:102120000020E9F7AF0141505109461B570BB5DFBD
:10213000811102C0CE01EDDECE01DF91CF91089575
:10214000089595D9FDDF0E94EF01CCEADBE00E9403
:1021500099042097E1F300DBFACF08950CD0BAC0C0
:10216000B2D040F0A9D030F021F45F3F19F09BC00D
:102170005111E4C09EC0BFD098F39923C9F35523F1
:10218000B1F3951B550BBB27AA276217730784076A
:1021900038F09F5F5F4F220F331F441FAA1FA9F320
:1021A00033D00E2E3AF0E0E830D091505040E69512
:1021B000001CCAF729D0FE2F27D0660F771F881F73
:1021C000BB1F261737074807AB07B0E809F0BB0B62
:1021D000802DBF01FF2793585F4F2AF09E3F510586
:1021E00068F061C0ABC05F3FECF3983EDCF38695CE
:1021F00077956795B795F7959F5FC9F7880F911DFC
:102200009695879597F90895E1E0660F771F881FE7
:10221000BB1F621773078407BA0720F0621B730B9A
:10222000840BBA0BEE1F88F7E0950895E89409C077
:1022300097FB3EF490958095709561957F4F8F4FF9
:102240009F4F9923A9F0F92F96E9BB279395F6950F
:10225000879577956795B795F111F8CFFAF4BB0F8D
:1022600011F460FF1BC06F5F7F4F8F4F9F4F16C0F1
:10227000882311F096E911C0772321F09EE8872F7B
:10228000762F05C0662371F096E8862F70E060E037
:102290002AF09A95660F771F881FDAF7880F9695B0
:1022A000879597F9089597F99F6780E870E060E057
:1022B00008959FEF80EC089500240A9416161706DF
:1022C00018060906089500240A9412161306140627
:1022D00005060895092E0394000C11F4882352F08A
:1022E000BB0F40F4BF2B11F460FF04C06F5F7F4F42
:1022F0008F4F9F4F089557FD9058440F551F59F029
:102300005F3F71F04795880F97FB991F61F09F3FE2
:1023100079F087950895121613061406551FF2CF0B
:102320004695F1DF08C0161617061806991FF1CF5B
:1023300086957105610508940895E894BB27662782
:102340007727CB0197F90895DB018F939F9376D080
:10235000BF91AF91A29F800D911DA39F900DB29F41
:10236000900D11240895AA1BBB1B51E107C0AA1FA1
:10237000BB1FA617B70710F0A61BB70B881F991F26
:102380005A95A9F780959095BC01CD01089597FBCA
:10239000072E16F4009406D077FD08D0E4DF07FC82
:1023A00005D03EF4909581959F4F08957095619565
:1023B0007F4F0895A1E21A2EAA1BBB1BFD010DC081
:1023C000AA1FBB1FEE1FFF1FA217B307E407F507E5
:1023D00020F0A21BB30BE40BF50B661F771F881FC1
:1023E000991F1A9469F760957095809590959B0157
:1023F000AC01BD01CF010895052E97FB16F40094A2
:102400000FD057FD05D0D6DF07FC02D046F408C038
:1024100050954095309521953F4F4F4F5F4F089510
:1024200090958095709561957F4F8F4F9F4F089540
:10243000EE0FFF1F0590F491E02D199413D0A59F86
:10244000900DB49F900DA49F800D911D11240895AF
:10245000B7FFF4CFF3DF821B930B08950790F6913B
:10246000E02D1994A29FB001B39FC001A39F700DEE
:10247000811D1124911DB29F700D811D1124911D8C
:102480000895EF920F931F93CF93DF93E80147FFD7
:1024900002C034E101C034E0E42FFF27E7FDF095EE
:1024A000F7FF03C0F195E195F109E32E022F2E2FDE
:1024B000AE0147D2CE01DF91CF911F910F91EF90E6
:1024C0000895CF93DF938230910510F482E090E07D
:1024D000E0918C04F0918D0420E030E0A0E0B0E0C9
:1024E000309739F14081518148175907B8F04817A2
:1024F000590771F482819381109729F013969C9368
:102500008E9312972CC090938D0480938C0427C0D7
:102510002115310531F04217530718F0A901DB01ED
:1025200001C0EF019A01BD01DF010280F381E02DBE
:10253000D7CF21153105F9F0281B390B243031058F
:1025400080F48A819B816115710521F0FB019383E1
:10255000828304C090938D0480938C04FE01329694
:1025600044C0FE01E20FF31F819391932250310981
:10257000398328833AC020918A0430918B04232B1D
:1025800041F4209102023091030230938B04209396
:102590008A0420910002309101022115310541F495
:1025A0002DB73EB74091040250910502241B350B14
:1025B000E0918A04F0918B04E217F307A0F42E1B3C
:1025C0003F0B2817390778F0AC014E5F5F4F241797
:1025D000350748F04E0F5F1F50938B0440938A04D9
:1025E0008193919302C0E0E0F0E0CF01DF91CF91C1
:1025F0000895CF93DF93009709F487C0FC013297C9
:1026000013821282C0918C04D0918D04209781F4A2
:1026100020813181280F391F80918A0490918B0489
:102620008217930779F5F0938B04E0938A046DC0C9
:10263000DE0120E030E0AE17BF0750F412964D9156
:102640005C9113979D014115510509F1DA01F3CF12
:10265000B383A28340815181840F951F8A179B0702
:1026600071F48D919C911197840F951F029691831F
:10267000808312968D919C91139793838283211569
:10268000310529F4F0938D04E0938C043EC0D90108
:102690001396FC93EE9312974D915D91A40FB51F85
:1026A000EA17FB0779F480819181840F951F0296C8
:1026B000D90111969C938E938281938113969C935A
:1026C0008E931297E0E0F0E08A819B81009719F0E9
:1026D000FE01EC01F9CFCE01029628813981820FEB
:1026E000931F20918A0430918B042817390769F4CD
:1026F000309729F410928D0410928C0402C013823A
:102700001282D0938B04C0938A04DF91CF910895F5
:102710006F927F928F929F92AF92BF92CF92DF92F1
:10272000EF92FF920F931F93CF93DF93EC01CB01B6
:10273000209779F4DF91CF911F910F91FF90EF9047
:10274000DF90CF90BF90AF909F908F907F906F90D1
:10275000B8CEFE01E60FF71F9E0122503109E217A5
:10276000F30708F4A8C0D9010D911C911197061721
:102770001707B0F00530110508F49BC0A8014450BC
:1027800051094617570708F494C002501109061B57
:10279000170B019311936D937C93CF012ADF89C0AE
:1027A0005B01A01AB10A4E01800E911EA0918C040B
:1027B000B0918D04612C712C60E070E0109709F4E9
:1027C00049C0A815B905C9F5ED90FC9011976701AE
:1027D00042E0C40ED11CCA14DB0478F147018A1808
:1027E0009B08640142E0C40ED11C1296BC90129763
:1027F0001396AC91B5E0CB16D10440F0B282A3831E
:1028000091828082D9018D939C9309C00E5F1F4FE6
:102810000E0D1F1DF90111830083EB2DFA2F611599
:10282000710531F0DB011396FC93EE93129741C0D2
:10283000F0938D04E0938C043CC06D917C911197D2
:102840006616770608F43B01BD0112960D90BC9107
:10285000A02DB4CF60918A0470918B04681579051E
:10286000E9F468167906D0F4409100025091010213
:102870004115510541F44DB75EB760910402709166
:102880000502461B570BE417F507A8F4F0938B04D9
:10289000E0938A04F901918380830BC012DE7C01EE
:1028A000009749F0A801BE0134D0CE01A2DEC701D5
:1028B00004C0CE0102C080E090E0DF91CF911F9173
:1028C0000F91FF90EF90DF90CF90BF90AF909F90CF
:1028D0008F907F906F900895FC0188279927E89446
:1028E00021912032E9F3293010F02E30C8F32B3239
:1028F00039F02D3231F4689403C01BD0820F911D42
:10290000219120532A30C8F31EF4909581959F4F52
:102910000895FB01DC0102C001900D92415050402E
:10292000D8F70895FB01DC0101900D920020E1F73A
:1029300008957AE0979F902D879F802D910D112407
:1029400008956F927F929F92AF92BF92CF92DF9243
:10295000EF92FF920F931F93CF93DF93CDB7DEB724
:1029600029970FB6F894DEBF0FBECDBF6A01B22E15
:10297000102F0C3320F4FF24F394F00E02C04CE32C
:10298000F42E0F2D27E0AE014F5F5F4F57D17981B5
:10299000272F2970213031F0E1FC06C0E0FC06C091
:1029A00060E005C06DE203C06BE201C060E2AE2DE5
:1029B000A07173FF36C0662311F084E001C083E08C
:1029C0008B1510F4B81A01C0B12CA1110BC0F6017F
:1029D0008B2D90E2882319F091938150FBCFCB0C83
:1029E000D11CB12C662331F0F601608396012F5F74
:1029F0003F4F6901C6010396E2FE05C02EE4F601D1
:102A0000208331E404C02EE6F601208331E63183D1
:102A10002283FC012B2D30E22223F1F1319321504E
:102A2000FBCF72FF40C0662311F084E001C083E059
:102A30008B1510F4B81A01C0B12CA1110BC0F6010E
:102A40008B2D90E2882319F091938150FBCFCB0C12
:102A5000D11CB12C662331F0F601608396012F5F03
:102A60003F4F6901C6010396E2FE07C029E4F60163
:102A700020832EE4218326E406C029E6F601208384
:102A80002EE6218326E62283FC012B2D30E2222331
:102A900019F031932150FBCFFC01EB0DF11D108299
:102AA0008EEF9FEFB7C0B1E0611101C0B0E04B2FD6
:102AB00050E01816190624F49C012F5F3F4F02C006
:102AC00021E030E0240F351F112329F0412F50E081
:102AD0004F5F5F4F02C040E050E0420F531F2B2D6D
:102AE00030E04217530714F4B41A01C0B12C2E2D54
:102AF000287159F4F6012B2D30E2222319F031937D
:102B00002150FBCFCB0CD11CB12CBB2331F0F601F3
:102B1000608396012F5F3F4F6901A1110BC0F60141
:102B20002B2D30E3222319F031932150FBCFCB0C16
:102B3000D11CB12CF80E0A81372F3071A32E74FFEF
:102B400003C0013309F4FA941F142CF42F2D2930FB
:102B500018F028E001C021E0682F392F97FF02C04C
:102B600060E030E0462F532F612C712C3EE2932E13
:102B7000BC01621B71099B01DC01A41BB50BE1E0E8
:102B8000F0E0EC0FFD1FAE0FBF1FE12EF12CF19412
:102B9000E194F1084F3FFFEF5F0731F4F6019082B7
:102BA000B6016F5F7F4F6B01841795074CF02417B8
:102BB000350734F4BD01660D771DFB01118101C09D
:102BC00010E341505109FFEF6F1A7F0AB6016F5FA2
:102BD0007F4F4E155F0524F0F60110836B01DACFAD
:102BE0004817590739F4063320F4053319F4A110B6
:102BF00001C011E3F6011083FB018B2D90E28823C5
:102C000019F091938150FBCFFB01EB0DF11D108268
:102C100080E090E029960FB6F894DEBF0FBECDBFDE
:102C2000DF91CF911F910F91FF90EF90DF90CF90A8
:102C3000BF90AF909F907F906F900895283008F0DC
:102C400027E03327DA01990F311D87FD9160009647
:102C50006105710539F432602E5F3D9330E32A95AA
:102C6000E1F708959F3F30F080387105610509F064
:102C70003C5F3C5F3D93913008F08068911DDF938D
:102C8000CF931F930F93FF92EF92192F987F9695F2
:102C9000E92F96959695E90FFF27E654FD4F992762
:102CA0003327EE24FF24A701E70105900894079439
:102CB00028F4360FE71EF81E491F511D660F771FB7
:102CC000881F991F0694A1F70590079428F4E70E32
:102CD000F81E491F561FC11D770F881F991F661FB9
:102CE0000694A1F70590079428F4F80E491F561F83
:102CF000C71FD11D880F991F661F771F0694A1F764
:102D00000590079420F4490F561FC71FD81F990F2D
:102D1000661F771F881F0694A9F784911095177076
:102D200041F0D695C79557954795F794E7941A952E
:102D3000C1F7E0E6F2E06894159015913591659140
:102D4000959105907FE27395E118F10A430B560BBC
:102D5000C90BD009C0F7E10CF11E431F561FC91F54
:102D6000D01D7EF4703311F48A95E6CFE8940150BB
:102D700030F0080F0AF40027021708F4202F2395DB
:102D8000022F7A3328F079E37D932A95E9F710C072
:102D90007D932A9589F606949795679537951795AB
:102DA0001794E118F10A430B560BC90BD00998F0A0
:102DB00023957E9173957A3308F070E37C9320130A
:102DC000B8F77E9170617D9330F0839571E37D93C8
:102DD00070E32A95E1F71124EF90FF900F911F9176
:102DE000CF91DF91992787FD90950895F894FFCFB3
:102DF00000008E0480000164000D020002000258F1
:102E00000201415445300041542B434D47463D316A
:102E10000041542B434E4D493D322C322C302C3046
:102E20002C300041542B434D47533D223939363124
:102E3000313636333636220D003B00580059005AE1
:102E4000004750524D43004750474741004E004E07
:102E50004E4500454E4500455345005353450053EC
:102E6000005353570057535700574E57004E4E5775
:102E70000000000000290C430E7F0B980B8A0B0802
:102E80000C0D0A006E616E00696E66006F7666005A
:022E90002E0012
:020000023000CC
:10E000000D9489F10D94B2F10D94B2F10D94B2F129
:10E010000D94B2F10D94B2F10D94B2F10D94B2F1F0
:10E020000D94B2F10D94B2F10D94B2F10D94B2F1E0
:10E030000D94B2F10D94B2F10D94B2F10D94B2F1D0
:10E040000D94B2F10D94B2F10D94B2F10D94B2F1C0
:10E050000D94B2F10D94B2F10D94B2F10D94B2F1B0
:10E060000D94B2F10D94B2F10D94B2F10D94B2F1A0
:10E070000D94B2F10D94B2F10D94B2F10D94B2F190
:10E080000D94B2F10D94B2F10D94B2F10D94B2F180
:10E090000D94B2F10D94B2F10D94B2F10D94B2F170
:10E0A0000D94B2F10D94B2F10D94B2F10D94B2F160
:10E0B0000D94B2F10D94B2F10D94B2F10D94B2F150
:10E0C0000D94B2F10D94B2F10D94B2F10D94B2F140
:10E0D0000D94B2F10D94B2F10D94B2F10D94B2F130
:10E0E0000D94B2F141546D656761323536300041AF
:10E0F000726475696E6F206578706C6F72657220DE
:10E1000073746B3530305632206279204D4C530099
:10E11000426F6F746C6F616465723E004875683F52
:10E1200000436F6D70696C6564206F6E203D200048
:10E130004350552054797065202020203D20005FF9
:10E140005F4156525F415243485F5F3D2000415658
:10E1500052204C696243205665723D20004743437C
:10E160002056657273696F6E203D20004350552024
:10E1700049442020202020203D20004C6F7720663D
:10E18000757365202020203D20004869676820665F
:10E190007573652020203D200045787420667573D6
:10E1A00065202020203D20004C6F636B2066757336
:10E1B000652020203D20004D617220203720323024
:10E1C000313300312E362E3800342E332E350056A2
:10E1D00023202020414444522020206F7020636F70
:10E1E00064652020202020696E73747275637469E1
:10E1F0006F6E2061646472202020496E74657272B3
:10E20000757074006E6F20766563746F7200726A49
:10E210006D702020006A6D70200057686174207056
:10E220006F72743A00506F7274206E6F7420737541
:10E2300070706F72746564004D7573742062652030
:10E2400061206C6574746572002000577269747483
:10E25000696E672045450052656164696E672045B7
:10E26000450045452065727220636E743D00504F35
:10E27000525400303D5A65726F2061646472003FF1
:10E280003D43505520737461747300403D454550C3
:10E29000524F4D207465737400423D426C696E6B41
:10E2A000204C454400453D44756D70204545505215
:10E2B0004F4D00463D44756D7020464C415348001B
:10E2C000483D48656C70004C3D4C69737420492F83
:10E2D0004F20506F72747300513D51756974005234
:10E2E0003D44756D702052414D00563D73686F7707
:10E2F00020696E7465727275707420566563746FF0
:10E30000727300593D506F727420626C696E6B00BD
:10E310002A0011241FBECFEFD1E2DEBFCDBF01E046
:10E320000CBF12E0A0E0B2E0EEE1FDEF03E00BBFB6
:10E3300002C007900D92A030B107D9F712E0A0E01B
:10E34000B2E001C01D92AE30B107E1F70F9460F367
:10E350000D948DFE01E20EBF0FEF0DBF11241FBE05
:10E360000D9460F30D9400F020E030E040ED57E0B4
:10E3700005C0FA013197F1F72F5F3F4F2817390792
:10E38000C0F308959C01260F311DC901A0E0B0E043
:10E390002F5F3F4FABBFFC018791882361F08093D3
:10E3A000C6008091C00086FFFCCF8091C0008064D1
:10E3B0008093C000EACF08958DE08093C6008091DD
:10E3C000C00086FFFCCF8091C00080648093C000B5
:10E3D0008AE08093C6008091C00086FFFCCF8091C8
:10E3E000C00080648093C00008950F94C2F10F9420
:10E3F000DCF10895FC019081992359F09093C600B7
:10E400008091C00086FFFCCF8091C0008064809323
:10E41000C0003196992379F70895282F982F929567
:10E420009F70892F805D8A3308F0895F8093C600D2
:10E430008091C00086FFFCCF8091C00080648093F3
:10E44000C000822F8F70982F905D9A3308F0995FEB
:10E450009093C6008091C00086FFFCCF8091C000E1
:10E4600080648093C00008959C01FB01853691056E
:10E470001CF46330710594F0C90164E670E00F94F8
:10E480002EFE605D7F4F6093C6008091C00086FFC6
:10E49000FCCF8091C00080648093C0002B30310598
:10E4A00014F43297B4F0C90164E670E00F942EFEC4
:10E4B0006AE070E00F942EFE605D7F4F6093C600AF
:10E4C0008091C00086FFFCCF8091C0008064809363
:10E4D000C000C9016AE070E00F942EFEC0968093E0
:10E4E000C6008091C00086FFFCCF8091C000806490
:10E4F0008093C00008951F93182F8EE692EE60E07F
:10E500000F94C2F11093C6008091C00086FFFCCF2B
:10E510008091C00080648093C0000F94DCF11F9153
:10E5200008952F923F924F925F926F927F928F92B7
:10E530009F92AF92BF92CF92DF92EF92FF920F9392
:10E540001F93DF93CF93CDB7DEB762970FB6F894E2
:10E55000DEBF0FBECDBF382E622ECA01DB015C01CB
:10E560006D01772420E2222E2E010894411C511CBB
:10E570008BC081E0A81680E0B80681E0C80680E084
:10E58000D80628F0C601AA27BB270F940DF2BB2797
:10E59000AD2D9C2D8B2D0F940DF28A2D0F940DF225
:10E5A0002092C6008091C00086FFFCCF8091C00001
:10E5B00080648093C0009DE29093C6008091C0006B
:10E5C00086FFFCCF8091C00080648093C0002092C1
:10E5D000C6008091C00086FFFCCF8091C00080649F
:10E5E0008093C00019828601750188249924A1E0D6
:10E5F0003A1651F03A1620F0B2E03B1661F409C029
:10E600000BBFF701779007C0C7010F9477FE782EF4
:10E6100002C0F7017080872D0F940DF22092C60082
:10E620008091C00086FFFCCF8091C0008064809301
:10E63000C000872D8052F401EF70F0708F3520F408
:10E64000E40DF51D708204C0E40DF51D8EE280839B
:10E650000894E11CF11C011D111D0894811C911CE2
:10E6600090E18916910409F0C2CF80E190E0A0E02A
:10E67000B0E0A80EB91ECA1EDB1E198AC2010F9493
:10E68000FAF10F94DCF16A94662009F072CF629679
:10E690000FB6F894DEBF0FBECDBFCF91DF911F91B3
:10E6A0000F91FF90EF90DF90CF90BF90AF909F9031
:10E6B0008F907F906F905F904F903F902F90089534
:10E6C0002F923F924F925F926F927F928F929F9282
:10E6D000AF92BF92CF92DF92EF92FF920F931F9370
:10E6E000DF93CF93CDB7DEB7CD53D1400FB6F894BB
:10E6F000DEBF0FBECDBF01E20EBF0FEF0DBF94B75F
:10E70000F894A89514BE80916000886180936000A1
:10E7100010926000789493FF05C0E0910002F091A0
:10E7200001021995279A2F9A8091C00082608093E8
:10E73000C00080E18093C40088E18093C1000000A4
:10E74000EE24FF24870144E0A42EB12CCC24DD2448
:10E7500024C0C5010197F1F70894E11CF11C011DCB
:10E76000111D21E2E2162EE4F20620E0020720E06D
:10E77000120718F031E0C32ED12CC801B70127ECE5
:10E780003BE140E050E00F9441FE611571058105C9
:10E79000910519F485B1805885B98091C00087FD35
:10E7A00003C0C114D104A9F2A6014F5F5F4FC25E3E
:10E7B000DE4F59834883CE51D140C25EDE4F8881FF
:10E7C0009981CE51D140019711F00D9410FEC05D9A
:10E7D000DE4F19821882C053D14060E0C15DDE4F28
:10E7E0001882CF52D14088249924C35DDE4F19820C
:10E7F0001882CD52D140C05EDE4F188219821A8233
:10E800001B82C052D140CE5CDE4F188219821A8220
:10E810001B82C253D140EE24FF2487010BBFF701B6
:10E8200007911691C45CDE4F19830883CC53D14005
:10E830000D940BFEC25EDE4F28813981CE51D1404E
:10E840002130310509F52091C600C25EDE4F1982E4
:10E850001882CE51D14022C02F5F3F4F4F4F5F4FA4
:10E86000213082E138078AE7480780E0580780F0C6
:10E87000C45CDE4FE881F981CC53D140EF5FFF4F9C
:10E8800019F0EE27FF27099420E030E040E050E047
:10E890008091C00087FFE0CF2091C600C35DDE4FAE
:10E8A00048815981CD52D1404F5F5F4FC35DDE4FEC
:10E8B00059834883CD52D140213209F063C64A3092
:10E8C000510508F05FC60894811C911C53E0851621
:10E8D000910409F059C600E010E018C081E280936D
:10E8E000C6008091C00086FFFCCF8091C00080648C
:10E8F0008093C0002F5F3F4F2931310579F70F9486
:10E90000DCF10F5F1F4F0530110519F020E030E0FA
:10E91000E5CF10920A0210920B0210920C02109294
:10E920000D02109206021092070210920802109235
:10E930000902109202021092030210920402109235
:10E9400005028FEE90EE60E00F94F5F180E191EE1C
:10E9500060E00F94C2F18091C00087FFFCCF9091DE
:10E96000C600903608F09F759032B8F09093C600BC
:10E970008091C00086FFFCCF8091C00080648093AE
:10E98000C000A0E2A093C6008091C00086FFFCCF2B
:10E990008091C00080648093C000983409F4D7C18E
:10E9A0009934B8F4923409F459C1933458F490333B
:10E9B00019F1903308F4E3C59F33A1F1903409F0C5
:10E9C000DEC5BDC0953409F470C1963409F0D7C5D1
:10E9D00098C1923509F42BC2933538F49C3409F46C
:10E9E000F5C1913509F0CBC518C2963509F445C279
:10E9F000993509F0C4C567C483E792EE62E00F94CD
:10EA0000F5F110920602109207021092080210927D
:10EA1000090210920A0210920B0210920C0210923C
:10EA20000D0213C18FE792EE62E00F94F5F18FEEC5
:10EA300090EE60E00F94F5F181E291EE60E00F94CA
:10EA4000C2F187EB91EE60E00F94F5F180E391EE77
:10EA500060E00F94C2F184EE90EE60E00F94F5F167
:10EA60008FE391EE60E00F94C2F186E090E061E008
:10EA700070E00F9434F20F94DCF18DE591EE60E0DC
:10EA80000F94C2F189EC91EE60E00F94F5F18EE401
:10EA900091EE60E00F94C2F183EC91EE60E00F9490
:10EAA000F5F18CE691EE60E00F94C2F18EE10F94E7
:10EAB0000DF288E90F940DF281E00F940DF20F949E
:10EAC000DCF18BE791EE60E00F94C2F119E0E0E039
:10EAD000F0E010935700E4918E2F0F940DF20F94F5
:10EAE000DCF18AE891EE60E00F94C2F1E3E0F0E03F
:10EAF00010935700E4918E2F0F940DF20F94DCF1D8
:10EB000089E991EE60E00F94C2F1E2E0F0E0109349
:10EB10005700E4918E2F0F940DF20F94DCF188EAE8
:10EB200091EE60E00F94C2F1E1E0F0E01093570045
:10EB30001491812F0F940DF20F94DCF107CF8BE825
:10EB400092EE62E00F94F5F18BE492EE60E00F94A8
:10EB5000F5F10F94DCF100E010E019C0C8016F2D51
:10EB60000F947FFEFF2031F489E492EE60E00F9471
:10EB7000C2F10BC0F092C6008091C00086FFFCCFAE
:10EB80008091C00080648093C0000F5F1F4FC80158
:10EB900081519F41A0E0B0E0ABBFFC01F790BAE229
:10EBA000FB1621F0E2E000301E07C1F60F94DCF105
:10EBB0000F94DCF187E592EE60E00F94F5F10F948D
:10EBC000DCF1CC24DD2400E010E01EC0C8010F946D
:10EBD00077FEF82E882331F489E492EE60E00F94FA
:10EBE000C2F10BC08093C6008091C00086FFFCCFAD
:10EBF0008091C00080648093C000FE1419F00894D6
:10EC0000C11CD11C0F5F1F4FC80181519F41A0E063
:10EC1000B0E0ABBFFC01E790FAE2EF1621F022E092
:10EC20000030120799F60F94DCF10F94DCF182E6C4
:10EC300092EE60E00F94C2F1C60161E070E00F94C3
:10EC400034F20F94DCF10F94DCF110920202109276
:10EC50000302109204021092050278CE89E992EE26
:10EC600062E00F94F5F1279A2F9A16C02F9880E052
:10EC700090E0E0EDF7E03197F1F7019684369105E9
:10EC8000C1F72F9A80E090E0E0EDF7E03197F1F7DF
:10EC9000019684369105C1F78091C00087FFE6CFC9
:10ECA0008091C00087FFFCCF64C485EA92EE62E0E9
:10ECB0000F94F5F140910202509103026091040219
:10ECC0007091050281E020E10F9491F2809102029F
:10ECD00090910302A0910402B091050280509F4FD1
:10ECE000AF4FBF4F8093020290930302A0930402A0
:10ECF000B093050280509041A040B04008F426CE69
:10ED0000A4CF83EB92EE62E00F94F5F140910602FE
:10ED100050910702609108027091090280E020E1A1
:10ED20000F9491F28091060290910702A09108023F
:10ED3000B091090280509F4FAF4FBF4F80930602A2
:10ED400090930702A0930802B0930902FFCD80ECD4
:10ED500092EE62E00F94F5F183E792EE60E00F949B
:10ED6000F5F18FE792EE60E00F94F5F18BE892EE0B
:10ED700060E00F94F5F189E992EE60E00F94F5F10F
:10ED800085EA92EE60E00F94F5F183EB92EE60E09D
:10ED90000F94F5F180EC92EE60E00F94F5F187ECC2
:10EDA00092EE60E00F94F5F188ED92EE60E00F9442
:10EDB000F5F18FED92EE60E00F94F5F18AEE92EEB0
:10EDC00060E00F94F5F183E093EEBDCD87EC92EE19
:10EDD00062E00F94F5F181E40F947BF282E40F94EA
:10EDE0007BF283E40F947BF284E40F947BF285E45E
:10EDF0000F947BF286E40F947BF287E40F947BF20E
:10EE000088E40F947BF28AE40F947BF28BE40F94F6
:10EE10007BF28CE40F947BF299CD88ED92EE62E068
:10EE20000F94F5F1772473948824992409C48FED05
:10EE300092EE62E00F94F5F140910A0250910B02BC
:10EE400060910C0270910D0282E020E10F9491F22A
:10EE500080910A0290910B02A0910C02B0910D02D8
:10EE600080509F4FAF4FBF4F80930A0290930B0289
:10EE7000A0930C02B0930D0269CD8AEE92EE62E08F
:10EE80000F94F5F184EE90EE60E00F94F5F18FECC5
:10EE900091EE60E00F94F5F1662477244301CC5D98
:10EEA000DE4F19821882C452D140D401C301B695F5
:10EEB000A79597958795CA5DDE4F88839983AA8326
:10EEC000BB83C652D140CC5DDE4FA881B981C4520C
:10EED000D1401196CC5DDE4FB983A883C452D14096
:10EEE000CD0162E070E00F9434F2B0E2B093C6005E
:10EEF0008091C00086FFFCCF8091C0008064809329
:10EF0000C000EDE2E093C6008091C00086FFFCCF18
:10EF10008091C00080648093C000F0E2F093C6004E
:10EF20008091C00086FFFCCF8091C00080648093F8
:10EF3000C000CA5DDE4FE880F9800A811B81C6529D
:10EF4000D140BB27A12F902F8F2D0F940DF2CA5DBA
:10EF5000DE4F8881C652D1400F940DF2B0E2FB2EF5
:10EF6000F092C6008091C00086FFFCCF8091C00067
:10EF700080648093C0000DE30093C6008091C000C0
:10EF800086FFFCCF8091C00080648093C00010E2B7
:10EF90001093C6008091C00086FFFCCF8091C00016
:10EFA00080648093C0008BBEF3012791C65DDE4F65
:10EFB0002883CA52D140A22EBB24CC24DD2408943D
:10EFC000611C711C811C911C8BBEF3018791282E42
:10EFD0003324442455240894611C711C811C911C09
:10EFE0008BBEF3013791C55DDE4F3883CB52D140E4
:10EFF0000894611C711C811C911C8BBEF30147910C
:10F00000C45DDE4F4883CC52D140ADEFEA2EAFEF66
:10F01000FA2EAFEF0A2FAFEF1A2F6E0C7F1C801E57
:10F02000911E142D032DF22CEE24EA0CFB1C0C1D5A
:10F030001D1D0F940DF220E22093C6008091C000A8
:10F0400086FFFCCF8091C00080648093C000C65DC5
:10F05000DE4F8881CA52D1400F940DF230E23093D6
:10F06000C6008091C00086FFFCCF8091C000806404
:10F070008093C000C45DDE4F8881CC52D1400F9494
:10F080000DF240E24093C6008091C00086FFFCCFA5
:10F090008091C00080648093C000C55DDE4F888190
:10F0A000CB52D1400F940DF250E25093C6008091A4
:10F0B000C00086FFFCCF8091C00080648093C000B8
:10F0C0008FEFE8168FEFF80680E0080780E018075A
:10F0D00031F484E092EE60E00F94C2F1DFC0D80119
:10F0E000C7018070907CA070B0708050904CA040A0
:10F0F000B040D1F52FEF3FE340E050E0E222F322B1
:10F1000004231523CA5DDE4FA880B980CA80DB8046
:10F11000C652D140AE0CBF1CC01ED11EAA0CBB1CD7
:10F12000CC1CDD1C8EE092EE60E00F94C2F1BB2798
:10F13000A12F902F8F2D0F940DF28E2D0F940DF285
:10F1400030E23093C6008091C00086FFFCCF8091F2
:10F15000C00080648093C0004EE34093C60080915D
:10F16000C00086FFFCCF87C08EE09EEFA0E0B0E03D
:10F17000E822F9220A231B239CE0E91694E9F90608
:10F1800090E0090790E0190709F088C0C45DDE4FE0
:10F19000A881CC52D140EA2EFF2400E010E0102FCD
:10F1A0000F2DFE2CEE24C55DDE4FB881CB52D14031
:10F1B000EB0EF11C011D111DD601C501817090706F
:10F1C000A070B070DC0199278827E80EF91E0A1F8D
:10F1D0001B1F20EF30E040E050E0A222B322C42207
:10F1E000D52241E1AA0CBB1CCC1CDD1C4A95D1F7F1
:10F1F000EA0CFB1C0C1D1D1D81E090E0A0E0B0E0BE
:10F20000282239224A225B2235E1220C331C441C7D
:10F21000551C3A95D1F7E20CF31C041D151D57013E
:10F220006801AA0CBB1CCC1CDD1C85E192EE60E0E1
:10F230000F94C2F1C801AA27BB270F940DF2BB2778
:10F24000A12F902F8F2D0F940DF28E2D0F940DF274
:10F2500090E29093C6008091C00086FFFCCF809121
:10F26000C00080648093C000AEE3A093C60080918C
:10F27000C00086FFFCCF8091C00080648093C000F6
:10F28000C601AA27BB270F940DF2BB27AD2D9C2DDD
:10F290008B2D0F940DF28A2D0F940DF20F94DCF14B
:10F2A000CC5DDE4FE881F981C452D140F99709F471
:10F2B0004DCBF4E0EF2EF12C012D112D6E0C7F1CA7
:10F2C000801E911EF2CD83E093EE62E00F94F5F183
:10F2D0008AE192EE60E00F94C2F18091C00087FF56
:10F2E000FCCF1091C6001F751093C6008091C0001E
:10F2F00086FFFCCF8091C00080648093C0000F9493
:10F30000DCF1812F81548A3108F036C1163409F4BA
:10F3100095C0173490F4133409F44EC0143430F40B
:10F320001134F1F0123409F01DC130C0143409F465
:10F3300059C0153409F016C16BC01A3409F4C4C0A1
:10F340001B3438F4173409F48FC0183409F00AC19B
:10F35000A1C01B3409F4D2C01C3409F003C1E8C0B9
:10F360008FEF81B90DC082B1809582B980E090E0C5
:10F37000E0EDF7E03197F1F70196883C9105C1F790
:10F380008091C00087FFEFCF12B8EFC08FEF84B934
:10F390000DC085B1809585B980E090E0E0EDF7E0A3
:10F3A0003197F1F70196883C9105C1F78091C00033
:10F3B00087FFEFCF15B8D9C08FEF87B90DC088B1DF
:10F3C000809588B980E090E0E0EDF7E03197F1F7C3
:10F3D0000196883C9105C1F78091C00087FFEFCF6F
:10F3E00018B8C3C08FEF8AB90DC08BB180958BB9A7
:10F3F00080E090E0E0EDF7E03197F1F70196883C8E
:10F400009105C1F78091C00087FFEFCF1BB8ADC059
:10F410008FEF8DB90DC08EB180958EB980E090E0F0
:10F42000E0EDF7E03197F1F70196883C9105C1F7DF
:10F430008091C00087FFEFCF1EB897C08FEF80BBD1
:10F440000DC081B3809581BB80E090E0E0EDF7E0F6
:10F450003197F1F70196883C9105C1F78091C00082
:10F4600087FFEFCF11BA81C08FEF83BB0DC084B38C
:10F47000809584BB80E090E0E0EDF7E03197F1F714
:10F480000196883C9105C1F78091C00087FFEFCFBE
:10F4900014BA6BC08FEF809301010FC080910201FD
:10F4A00080958093020180E090E0E0EDF7E03197F5
:10F4B000F1F70196883C9105C1F78091C00087FF64
:10F4C000EDCF1092020151C08FEF809304010FC065
:10F4D0008091050180958093050180E090E0E0ED4A
:10F4E000F7E03197F1F70196883C9105C1F78091DB
:10F4F000C00087FFEDCF1092050137C08FEF8093DA
:10F5000007010FC08091080180958093080180E079
:10F5100090E0E0EDF7E03197F1F70196883C910536
:10F52000C1F78091C00087FFEDCF109208011DC088
:10F530008FEF80930A010FC080910B01809580931B
:10F540000B0180E090E0E0EDF7E03197F1F70196F4
:10F55000883C9105C1F78091C00087FFEDCF1092E4
:10F560000B0103C085E292EEEEC98091C00087FFD7
:10F57000FCCF8091C600EAC988E392EEE4C98CE131
:10F5800091EEE1C988249924933011F1943028F444
:10F59000913089F09230B8F408C0953061F195301F
:10F5A000F0F0963009F048C043C02B3109F042C951
:10F5B00091E06BE13FC96227C15DDE4F2883CF52E6
:10F5C000D14092E037C9B22FA0E0622793E032C960
:10F5D000822F90E0A82BB92B622794E02BC92E3004
:10F5E00009F039C3622795E0C05DDE4F19821882A9
:10F5F000C053D1401FC9E1E0F0E0EC0FFD1FC05D3A
:10F60000DE4F08811981C053D140E00FF11F2083E4
:10F610000F5F1F4FC05DDE4F19830883C053D14079
:10F6200062270A171B0709F005C9D80196E002C92D
:10F63000261709F010C303C0973009F0FBC87724E0
:10F640009981933109F412C19431C8F4963009F4C8
:10F65000D8C0973050F4923009F406C1933009F4C1
:10F660006DC0913009F059C253C0913109F477C08F
:10F67000923108F0BBC0903109F04FC2F5C098310B
:10F6800009F487C0993150F4953109F4EFC09531F0
:10F6900008F4C6C1963109F040C2C2C19A3109F4DA
:10F6A0006CC09A3108F491C09B3109F45BC09D3164
:10F6B00009F033C29D81903359F48F81882311F46E
:10F6C0009EE11CC0813011F091E018C098E916C08D
:10F6D000892F807591F0903539F4E0E0F0E089E011
:10F6E0008093570094910AC0983539F4E3E0F0E034
:10F6F00089E080935700949101C090E01A821B82A8
:10F700008D818C831D829E831F8227E030E009C299
:10F710001A8288E08B8381E48C8386E58D8382E581
:10F720008E8389E48F8383E5888780E589878FE5E9
:10F730008A8782E38B872BE030E0F3C18A818139AD
:10F7400041F0823941F0803911F48FE005C080E04A
:10F7500003C082E001C08AE01A828B8344C0772410
:10F76000739482C08D81882311F48EE12CC0813086
:10F7700011F081E028C088E926C01A82E1E0F0E0BB
:10F7800089E08093570084918B831C8224E030E0D1
:10F79000C8C18B81803589F48C81883039F4E2E0EE
:10F7A000F0E089E08093570084910DC0E0E0F0E044
:10F7B00089E080935700849106C0E3E0F0E089E09F
:10F7C0008093570084911A82DFCF8D81836C99E0FA
:10F7D000E1E0F0E0082E90935700E89507B600FCB2
:10F7E000FDCF1A821B8223E030E09BC180EC8A832C
:10F7F000CE5CDE4F188219821A821B82C253D1401E
:10F800008EC18A8190E0A0E0B0E0582F44273327D2
:10F8100022278B8190E0A0E0B0E0DC0199278827C7
:10F82000282B392B4A2B5B2B8D8190E0A0E0B0E098
:10F83000282B392B4A2B5B2B8C8190E0A0E0B0E089
:10F84000BA2FA92F982F8827282B392B4A2B5B2BCF
:10F85000220F331F441F551FC05EDE4F288339839C
:10F860004A835B83C052D1401A8259C13A81C95C34
:10F87000DE4F3883C753D140CA5CDE4F1882C6536F
:10F88000D1408B81C82EDD24CA5CDE4F488159816E
:10F89000C653D140C42AD52A933109F082C0CE5C28
:10F8A000DE4F88819981AA81BB81C253D1408050AB
:10F8B000904CA340B04030F583E0CE5CDE4FE88052
:10F8C000F9800A811B81C253D140F70100935B008C
:10F8D00080935700E89507B600FCFDCFCE5CDE4F65
:10F8E000088119812A813B81C253D14000501F4FAA
:10F8F0002F4F3F4FCE5CDE4F088319832A833B8313
:10F90000C253D140C05EDE4F488159816A817B81FC
:10F91000C052D140DE011B9631E08C9111962C91A2
:10F9200011971296C75CDE4F2883C953D140C85C3B
:10F93000DE4F1882C853D14090E0C85CDE4FE881AA
:10F94000F981C853D1408E2B9F2B0C01FA01609393
:10F950005B0030935700E89511244E5F5F4F6F4F67
:10F960007F4F0EEFE02E0FEFF02ECE0CDF1CC114F8
:10F97000D10499F685E0C05EDE4F088119812A81A5
:10F980003B81C052D140F80120935B008093570027
:10F99000E89507B600FCFDCF81E180935700E8951C
:10F9A00035C0C05EDE4F88819981AA81BB81C0527B
:10F9B000D140B695A795979587957C018601ABE0D8
:10F9C000AA2EB12CAC0EBD1E0BC0D5016D915D01F0
:10F9D000C7010F947FFE0894E11CF11C01501040F8
:10F9E0000115110591F7A60160E070E0440F551F65
:10F9F000661F771FC05EDE4FE880F9800A811B8199
:10FA0000C052D1404E0D5F1D601F711F1A82C05E33
:10FA1000DE4F488359836A837B83C052D1407FC0C5
:10FA2000FA80C55CDE4FF882CB53D140C65CDE4F16
:10FA30001882CA53D1408B81C82EDD24C65CDE4FAC
:10FA400008811981CA53D140C02AD12A1A828981DA
:10FA5000BE016D5F7F4F843121F59601C05EDE4FA0
:10FA6000E880F9800A811B81C052D1400BBFF701A9
:10FA700087919691DB018C9311969C936E5F7F4FDB
:10FA8000D801C7010296A11DB11DC05EDE4F88835B
:10FA90009983AA83BB83C052D14022503040F1F6F3
:10FAA00036C0C05EDE4F288139814A815B81C052F9
:10FAB000D1400894C108D108760100E010E0089414
:10FAC000C11CD11C0894E11CF11C011D111DE20E8A
:10FAD000F31E041F151F21BDBB27A52F942F832FB5
:10FAE00082BD2F5F3F4F4F4F5F4FF89A80B5DB01CC
:10FAF0008D93BD012E153F054007510761F7C05E8C
:10FB0000DE4F288339834A835B83C052D1409601FC
:10FB10002D5F3F4FFB01108204C080EC8A8322E0FE
:10FB200030E08BE18093C6008091C00086FFFCCF5F
:10FB30008091C00080648093C000C15DDE4FF88179
:10FB4000CF52D140F093C6008091C00086FFFCCF19
:10FB50008091C00080648093C000432F3093C60022
:10FB60008091C00086FFFCCF8091C00080648093AC
:10FB7000C000922F2093C6008091C00086FFFCCF6A
:10FB80008091C00080648093C0008EE08093C600A6
:10FB90008091C00086FFFCCF8091C000806480937C
:10FBA000C00065E1C15DDE4FE880CF52D1406E25D7
:10FBB00069276427FE01319610C090819093C6009A
:10FBC0008091C00086FFFCCF31968091C000806498
:10FBD0008093C0006927215030402115310569F715
:10FBE0006093C6008091C00086FFFCCF8091C0006A
:10FBF00080648093C00085B1805885B9772081F4F6
:10FC0000C15DDE4F0881CF52D1400F5FC15DDE4F35
:10FC10000883CF52D14090E0A0E0B0E00D941AF4F8
:10FC200027982F9880E090E020ED37E0F901319798
:10FC3000F1F7019684369105C9F700008091C00064
:10FC40008D7F8093C00081E180935700E895EE2777
:10FC5000FF270994FFCF90E00D941AF497FB092E2B
:10FC600007260AD077FD04D02ED006D000201AF443
:10FC7000709561957F4F0895F6F7909581959F4F08
:10FC80000895A1E21A2EAA1BBB1BFD010DC0AA1FDD
:10FC9000BB1FEE1FFF1FA217B307E407F50720F0F5
:10FCA000A21BB30BE40BF50B661F771F881F991F70
:10FCB0001A9469F760957095809590959B01AC01B9
:10FCC000BD01CF010895AA1BBB1B51E107C0AA1FAC
:10FCD000BB1FA617B70710F0A61BB70B881F991FED
:10FCE0005A95A9F780959095BC01CD010895F99991
:10FCF000FECF92BD81BDF89A992780B50895262F31
:10FD0000F999FECF1FBA92BD81BD20BD0FB6F89400
:0EFD1000FA9AF99A0FBE01960895F894FFCF63
:040000033000E000E9
:00000001FF
