:10000000AFC10000DEC10000DCC10000DAC10000A9
:10001000D8C10000D6C10000D4C10000D2C1000088
:10002000D0C10000CEC10000CCC10000CAC1000098
:10003000C8C100002BC20000C4C10000C2C1000042
:10004000C0C10000BEC10000BCC10000BAC10000B8
:10005000B8C10000B6C10000B4C100000C949909F9
:10006000B0C100000C94ED0C0C94230DAAC100004B
:10007000A8C10000A6C10000A4C10000A2C10000E8
:10008000A0C100009EC100009CC100009AC10000F8
:100090000C94980D0C94CE0D94C1000092C10000F8
:1000A00090C100008EC100008CC100008AC1000018
:1000B00088C1000086C1000084C1000082C1000028
:1000C00080C100007EC100007CC100007AC1000038
:1000D00078C1000076C1000074C1000072C1000048
:1000E00070C10000D507E607F40707080E083708B7
:1000F0003F0847084E085408540854085408540848
:10010000540854085408540854085408540854080F
:1001100054085408540854085408540854085408FF
:1001200054085408D507DF07E607F40707080E0848
:10013000210828082F08D60AD90AC80ACC0AD20AE8
:10014000100BDD0AE10AE70AEB0AEF0AF50AF90AE1
:10015000FD0A100B030B070B0B0B00000A0B020927
:100160000C0D0E0807030401000000000000000051
:10017000000000000000000000000000000000007F
:10018000000000000000121110000000000000003C
:10019000000000000000000000000000000000005F
:1001A0000102102020080810204010204080020189
:1001B000020108040201010204081020408080406E
:1001C000201008040201800402018040201008046D
:1001D000020108040201010204081020408001020B
:1001E00004081020408005050505070508080808D3
:1001F000020202020A0A08080404040401010101BF
:1002000001010101030303030303030304070707B9
:100210000C0C0C0C0C0C0C0C02020202060606065E
:10022000060606060B0B0B0B0B0B0B0B000022003C
:10023000250028002B002E003100340002010000B0
:10024000050108010B0100002100240027002A00FD
:100250002D003000330001010000040107010A01F4
:1002600000407A10F35A00A0724E18090010A5D46D
:10027000E80000E87648170000E40B54020000CACA
:100280009A3B000000E1F505000080969800000010
:1002900040420F000000A08601000000102700006F
:1002A0000000E803000000006400000000000A00F5
:1002B000000000000100000000002C76D888DC67F8
:1002C0004F0823DFC1DFAE59E1B1B796E5E3E45350
:1002D000C63AE651997696E8E6C28426EB898C9B6D
:1002E00062ED407C6FFCEFBC9C9F40F2BAA56FA50D
:1002F000F490055A2AF75C936B6CF9676DC11BFC8F
:10030000E0E40D47FEF520E6B500D0ED902E0300A9
:10031000943577050080841E080000204E0A0000F6
:1003200000C80C333333330F986E12831141EF8DB5
:100330002114893BE65516CFFEE6DB18D1844B38F5
:100340001BF77C1D901DA4BBE424203284725E2226
:100350008100C9F124ECA1E53D270004550D000EF4
:1003600011241FBECFEFD1E2DEBFCDBF00E00CBF36
:1003700012E0A0E0B2E0E0EFFDE200E00BBF02C05F
:1003800007900D92A23AB107D9F724E0A2EAB2E0B1
:1003900001C01D92AE38B207E1F713E0C0E6D3E02A
:1003A00000E006C022970109FE010BBF0E942E1239
:1003B000CA35D10780E00807A9F70E94A1100C9464
:1003C000F6161ECE82E08093B0009CE79093B300B7
:1003D00096E09093B100809370007894089526E0A1
:1003E00040E855E260E070E080E593E00E948D0C0B
:1003F00026E040E855E260E070E08DEE93E00E9478
:100400008D0C61E08BE00E94110B61E08CE00E949A
:10041000110B60E086E30E94110B60E087E30E940D
:10042000110B60E088E30E94110B60E089E30E94F9
:10043000110B60E08AE30E94110B60E088E00E94EB
:10044000110B60E08BE00E944A0B60E08CE00E94A0
:100450004A0BB8DF60EE7EE280E090E0E3D762E135
:1004600072E080E593E00E94AA0E67E172E080E509
:1004700093E00E94AA0E61E272E080E593E00E94A0
:10048000AA0E68EE73E080E090E0CCC71F920F9256
:100490000FB60F9211240BB60F922F933F934F93E9
:1004A0005F936F937F938F939F93AF93BF93CF93FC
:1004B000DF93EF93FF93F89489E30E94990A909356
:1004C0003403809333038091190390911A03A09110
:1004D0001B03B0911C030296A11DB11D809319034B
:1004E00090931A03A0931B03B0931C03409119032C
:1004F00050911A0360911B0370911C0380911503A6
:1005000090911603A0911703B0911803EA01C81B3C
:10051000D90B2091330330913403809109029091DB
:100520000A02281739071CF580910F0290911002DA
:1005300065E070E00E94C711CB01880F991F860FFC
:10054000971F8C179D079CF420913303309134033F
:1005500080910B0290910C022817390744F4809186
:1005600033039091340390930C0280930B022091FB
:100570003303309134038091090290910A0282176B
:10058000930764F4209133033091340380910D027A
:1005900090910E02821793070CF48FC0CB3FD105C8
:1005A0000CF440C020913303309134038091090250
:1005B00090910A0282179307ACF580913203811162
:1005C00031C080910F029091100265E070E00E94AE
:1005D000C711CB01880F991F860F971F8C179D0796
:1005E0000CF474C01FC080910F0290911002909380
:1005F0003103809330038091300390913103820F57
:10060000931F6AE070E00E94B3119B0140E050E04C
:1006100060E67AEE80E090E00E94FC1130933603B1
:1006200020933503209133033091340380910902E4
:1006300090910A022817390724F48091320381111E
:10064000ACC0C53CD9401CF180E092E090930A0216
:100650008093090290930E0280930D0290930C02F6
:1006600080930B028091190390911A03A0911B03B0
:10067000B0911C038093150390931603A093170366
:10068000B093180381E08093060210921D037894C2
:10069000FF91EF91DF91CF91BF91AF919F918F919A
:1006A0007F916F915F914F913F912F910F900BBE72
:1006B0000F900FBE0F901F9018958091330390916B
:1006C000340390930E0280930D0268CF81E08093F3
:1006D00032034091190350911A0360911B037091EA
:1006E0001C038091150390911603A0911703B091FC
:1006F0001803481B590B5093100240930F0280912E
:10070000190390911A03A0911B03B0911C038093CD
:10071000150390931603A0931703B09318038091C9
:100720001D03882399F010921D0380E090E0209132
:100730000F0230911002FC01EE0FFF1FE25EFC4F32
:100740003183208301968A30910589F780910602D2
:10075000882331F01092060281E080931D0397CF29
:10076000E0E0F0E020E030E0CF010196DC01AA0FEC
:10077000BB1FA25EBC4F4D915C91EE0FFF1FE25E6E
:10078000FC4F5183408340815181240F351F8930B4
:10079000910509F428CFFC01E7CF10923203809134
:1007A0000D0290910E0220910B0230910C02821BDF
:1007B000930B909308028093070280910702909117
:1007C000080220910B0230910C0297FD019695953D
:1007D0008795820F931F90930A028093090280915C
:1007E000090290910A0290930E0280930D0280916B
:1007F000090290910A0290930C0280930B0221CF80
:1008000082EA92E063C1CF93DF93CDB7DEB76A97F8
:100810000FB6F894DEBF0FBECDBF8DEE93E06FD75D
:10082000892BA9F08DEE93E083D7682F82EA92E0BE
:1008300044D4882391F320E030E0AE014D5E5F4F59
:10084000BE01695E7F4F82EA92E00BD5E6CF4F8909
:10085000588D698D7A8D26E0CE010D960E941F106D
:100860004B895C896D897E8926E0CE0107960E94BE
:100870001F1067E172E080E593E00E94AA0E64EF2A
:1008800071E080E090E0CED563E372E080E593E034
:100890000E94AA0E64EF71E080E090E0C3D5BE0133
:1008A000635F7F4FCE0101960E94011069E472E000
:1008B000CE0101960E948810BE01695F7F4F0E94A1
:1008C0007710BC0180E593E00E949A0ECE0101965C
:1008D0000E94850F64EF71E080E090E0A3D5609105
:1008E0003503709136034AE050E080E593E00E94C2
:1008F0006F0F64EF71E080E090E094D56AE180E5ED
:1009000093E00E94BA0E64EF71E080E090E08AD537
:10091000CE0107960E94850FCE010D960E94850F8D
:100920006A960FB6F894DEBF0FBECDBFDF91CF91B0
:1009300008958AE3FED590933803809337034AE005
:1009400050E0BC0180E593E00E946F0F60E08BE017
:10095000A1D660E08CE09ED686E3EBD5909346036B
:100960008093450387E3E5D5909344038093430345
:1009700088E3DFD590934203809341036BE472E0F8
:1009800080E593E00E948F0E6091450370914603CD
:100990004AE050E080E593E00E94680F6DE472E069
:1009A00080E593E00E948F0E6091430370914403B1
:1009B0004AE050E080E593E00E94680F6FE472E047
:1009C00080E593E00E948F0E609141037091420395
:1009D0004AE050E080E593E00E94680F80E593E0F4
:1009E0000E94970E809145039091460320913F030A
:1009F00030914003821B930B97FF03C09195819523
:100A0000910905971CF5809143039091440320912F
:100A10003D0330913E03821B930B97FF03C09195DA
:100A200081959109059794F4809141039091420337
:100A300020913B0330913C03821B930B97FF03C033
:100A400091958195910905970CF43BC080913903EC
:100A500090913A03892BB9F0809137039091380334
:100A60008536910584F08091350390913603CBDE75
:100A700061E08CE00FD660E08BE00CD660ED77E0B3
:100A800080E090E0CFD4809145039091460390930D
:100A9000400380933F0380914303909144039093DC
:100AA0003E0380933D0380914103909142039093D4
:100AB0003C0380933B0381E090E090933A03809362
:100AC000390360ED77E080E090E0ACC40F931F93B2
:100AD000FC010FEF1FEF9801008311832283338302
:100AE00010861186128613864FEF59EC6AE97BE374
:100AF000408B518B628B738B408F518F628F738FC2
:100B000040A351A362A373A340A751A762A773A7F1
:100B100040AB51AB62AB73AB00AF11AF22AF33AFA1
:100B2000DC01A05CBF4F8FEF90E011969C938E93F9
:100B300014960D931D932D933C93139718960D9334
:100B40001D932D933C93139718961C9211961C920B
:100B5000509682E08C9311961C9211961C921196DD
:100B60001C9211961D921D921D921C921397149621
:100B700011961C921E9212961D921C92EA5AFF4FD9
:100B800010821F910F9108952FEB260F862F992722
:100B900087FD9095263010F4C7970895615666300A
:100BA00018F4875591090895C09708950F931F93DE
:100BB000FB0160E070E0CB01019120ED200F2A30B5
:100BC000A0F4AAE0B0E09B01AC010E941E12112724
:100BD00007FD1095212F312F600F711F821F931F6A
:100BE0006053710981099109E7CF1F910F91089511
:100BF0000F931F93CF93FC01EA5AFF4FC1E020816E
:100C00002D3219F0C0E08F0103C08C01095A1F4F2B
:100C1000B801CCDF9B01AC01A4E6B0E00E941E123B
:100C2000F801DF01219130ED320F3A30D0F32E324E
:100C300069F511962C91119730ED320F3A3030F55D
:100C4000332727FD3095205331094AE0429F800128
:100C5000439F100D1124222717FD2095322F600F7E
:100C6000711F821F931F12960C9120ED200F2A30C6
:100C700068F4112707FD109500531109222717FD6D
:100C80002095322F600F711F821F931FCC2339F0E4
:100C900090958095709561957F4F8F4F9F4FCF9125
:100CA0001F910F9108954F925F926F927F928F9252
:100CB0009F92AF92BF92CF92DF92EF92FF92CF932B
:100CC000DF93EC01CA5ADF4FBE0170DF2B013C01FC
:100CD00024E630E040E050E00E94DA119B01AC01D4
:100CE00060EA76E881E090E00E94A4116B017C014B
:100CF000FE01819190ED980F9A30D8F38E3219F55C
:100D0000EF0180E1882E87E2982EA12CB12CA991C9
:100D100080ED8A0F8A30B8F4BB27A7FDB095D09735
:100D2000A50194010E942812C60ED71EE81EF91EC6
:100D3000C501B4012AE030E040E050E00E94DA1141
:100D400049015A01E4CFC701B6016D5F7F4F8F4F54
:100D50009F4F26E030E040E050E00E94DA11690148
:100D60007A01C301B20124E630E040E050E00E9485
:100D7000DA1160E472E48FE090E00E94A411C60EE4
:100D8000D71EE81EF91EC701B601DF91CF91FF9073
:100D9000EF90DF90CF90BF90AF909F908F907F901B
:100DA0006F905F904F900895DB01FA018D91882339
:100DB00019F091918917D1F3992787FD909508959E
:100DC000CF92DF92EF92FF921F93CF93DF93EC01CC
:100DD000FC01EB5AFF4F1081112309F4A7C0319693
:100DE0006081D2DE182FFE01E95AFF4F6081CE01EB
:100DF000CBDE40E1149F800D1124FE01EC5AFF4F21
:100E0000908189138AC074961081112309F44CC112
:100E1000359680819181019691838083B5978081F9
:100E20009181A281B381349780839183A283B3831C
:100E30003C9680819181A281B38134978083918394
:100E4000A283B383799680818823A1F1813009F050
:100E50002BC18C819D81AE81BF8188839983AA83B8
:100E6000BB838C859D85AE85BF8588879987AA873A
:100E7000BB878C899D89AE89BF89888B998BAA8B0A
:100E8000BB8B8C8D9D8DAE8DBF8D888F998FAA8FDA
:100E9000BB8F8CA59DA5AEA5BFA588A799A7AAA71E
:100EA000BBA78CA99DA9AEA9BFA988AB99ABAAABDA
:100EB000BBABFAC08CA19DA1AEA1BFA188A399A391
:100EC000AAA3BBA38C819D81AE81BF8188839983B6
:100ED000AA83BB838C899D89AE89BF89888B998BB6
:100EE000AA8BBB8B8C8D9D8DAE8DBF8D888F998F7E
:100EF000AA8FBB8FFE01E05CFF4FDE01AE5BBF4FF0
:100F00008D919C91918380838CAD9DADAEADBFAD35
:100F100088AF99AFAAAFBBAFC7C0C159DF4F8881B7
:100F2000998101969983888310E0BEC0FC01EA593B
:100F3000FF4F30818B599F4F7C0131111BC06E01D7
:100F400096E5C90ED11C41E552E0B601CE012CDF79
:100F5000892B11F481E00BC047E552E0B601CE01C8
:100F600023DF892B19F4F70110829EC082E0D7019C
:100F70008C939AC0DC01EC91E23009F495C0CE016B
:100F80008A5A9F4FDC012C91222309F48DC0B0E2D4
:100F9000EB9FF0011124E32B3197E932F10508F0C2
:100FA00083C0EE58FF4F0C941812CE0121DE6C83E3
:100FB0007D838E839F8307D2C85BDF4F10C0C859E3
:100FC000DF4F81E0213409F057C057C0CE016BDEFE
:100FD0006C8B7D8B8E8B9F8BF6D1C05BDF4F6883D4
:100FE00079838A839B8360C0233509F05DC08C8937
:100FF0009D89AE89BF89B095A095909581959F4FA9
:10100000AF4FBF4F8C8B9D8BAE8BBF8B4DC0CE0136
:101010004ADE6C8F7D8F8E8F9F8F46C0273509F0FB
:1010200043C08C8D9D8DAE8DBF8DB095A095909554
:1010300081959F4FAF4FBF4F8C8F9D8FAE8FBF8FCE
:1010400033C0CE01D5DD6CA77DA78EA79FA72CC08E
:10105000CE01CEDD6CAB7DAB8EAB9FAB25C0BC01B2
:10106000CE01A4DD6C877D878E879F871DC0C85900
:10107000DF4F81E021330CF480E0888315C00E94AB
:101080006C14CE5BDF4F9927998388830DC0CE0106
:10109000AFDD6CAF7DAF8EAF9FAF06C0CE01A8DDD8
:1010A0006CA37DA38EA39FA3812FDF91CF911F916E
:1010B000FF90EF90DF90CF900895CF92DF92EF9264
:1010C000FF920F931F93CF93DF931F92CDB7DEB79D
:1010D0006C01262FFC01E759FF4F4081518162814D
:1010E00073814F5F5F4F6F4F7F4F408351836283A8
:1010F00073838C0109591F4F8B5A9F4F7C012432F7
:1011000079F12CF42A3069F02D30E1F50AC02A3249
:1011100041F02C32B9F5F601EC5AFF4F808182275D
:101120008083F80180818F3058F4F601E80FF11DBB
:10113000EA5AFF4F1082C601298342DE298101C08D
:1011400080E0F601EA59FF4F90819F5F9083F8019C
:10115000108291E02A3209F090E0F70190832AC0D2
:10116000F8011082F601EA59FF4F1082729710823F
:10117000719682E08083F7011082F601E859FF4FF3
:10118000108217C0F80180818E3048F491E0980FEA
:101190009083F601E80FF11DEA5AFF4F2083F70113
:1011A0008081811106C0F601EC5AFF4F80818227B1
:1011B000808380E00F90DF91CF911F910F91FF907E
:1011C000EF90DF90CF900895CF92DF92EF92FF9251
:1011D0000F931F93CF93DF93E9016115710551F0D0
:1011E000FC01C088D188E288F388FB01C082D182EB
:1011F000E282F3824115510551F0FC01C08CD18C83
:10120000E28CF38CFA01C082D182E282F3822097D1
:10121000F9F08C01045B1F4FF80180819181A2815C
:10122000B3818F3F9F4FAF4FBF4F59F0CCD0F801E4
:101230000081118122813381601B710B820B930B22
:1012400003C06FEF7FEFCB01688379838A839B8331
:10125000DF91CF911F910F91FF90EF90DF90CF9092
:101260000895AF92BF92CF92DF92EF92FF920F93C9
:101270001F93CF93DF93CDB7DEB728970FB6F894BF
:10128000DEBF0FBECDBF5B018A01AE014F5F5F4F76
:10129000BE016B5F7F4F98DFCD80DE80EF80F884EA
:1012A0008FEFC81689ECD8068AE9E8068BE3F806C2
:1012B00049F0C701B601BCD720E034E244E759E465
:1012C0004DD704C060E070E08AE794E4F5016083E4
:1012D000718382839383FFEFCF16F9ECDF06FAE97F
:1012E000EF06FBE3FF0659F069817A818B819C81CF
:1012F0009FD720E034E244E759E430D704C060E0EF
:1013000070E08AE794E4F8016083718382839383B9
:1013100028960FB6F894DEBF0FBECDBFDF91CF91F8
:101320001F910F91FF90EF90DF90CF90BF90AF9003
:1013300008951F920F920FB60F9211242F933F938F
:101340008F939F93AF93BF938091480390914903EC
:10135000A0914A03B0914B033091470323E0230F40
:101360002D3720F40196A11DB11D05C026E8230FDD
:101370000296A11DB11D20934703809348039093CB
:101380004903A0934A03B0934B0380914C0390917F
:101390004D03A0914E03B0914F030196A11DB11DC5
:1013A00080934C0390934D03A0934E03B0934F034F
:1013B000BF91AF919F918F913F912F910F900FBE51
:1013C0000F901F9018952FB7F89460914803709173
:1013D000490380914A0390914B032FBF08953FB773
:1013E000F89480914C0390914D03A0914E03B091DD
:1013F0004F0326B5A89B05C02F3F19F00196A11DEC
:10140000B11D3FBF6627782F892F9A2F620F711D5C
:10141000811D911D42E0660F771F881F991F4A9515
:10142000D1F70895CF92DF92EF92FF92CF93DF939F
:101430006B017C01D4DFEB01C114D104E104F104A0
:1014400079F08BD6CCDF6C1B7D0B683E7340A0F32C
:1014500081E0C81AD108E108F108C851DC4FECCF8F
:10146000DF91CF91FF90EF90DF90CF900895789427
:1014700084B5826084BD84B5816084BD85B5826099
:1014800085BD85B5816085BDEEE6F0E08081816037
:101490008083E1E8F0E01082808182608083808137
:1014A00081608083E0E8F0E0808181608083E1EB0F
:1014B000F0E0808184608083E0EBF0E080818160F7
:1014C0008083E1E9F0E080818260808380818160B7
:1014D0008083E0E9F0E0808181608083E1EAF0E0F0
:1014E000808182608083808181608083E0EAF0E097
:1014F000808181608083E1E2F1E08081826080838D
:10150000808181608083E0E2F1E08081816080837E
:10151000EAE7F0E08081846080838081826080835C
:101520008081816080838081806880831092C10087
:101530000895863308F0865320917B00982F987089
:10154000277F922B90937B0087702091110290E46B
:10155000299F90011124822B80937C0080917A0036
:10156000806480937A0080917A0086FDFCCF809120
:1015700078002091790090E0922B089590E0FC0192
:101580003197E231F10508F04BC0E556FF4F50C7E7
:10159000809180008F7703C0809180008F7D809341
:1015A0008000089580918000877FF9CF84B58F7780
:1015B00002C084B58F7D84BD08958091B0008F777F
:1015C00003C08091B0008F7D8093B000089580911A
:1015D00090008F7707C0809190008F7D03C080912D
:1015E0009000877F8093900008958091A0008F776E
:1015F00007C08091A0008F7D03C08091A000877FED
:101600008093A0000895809120018F7707C080917A
:1016100020018F7D03C080912001877F809320016E
:101620000895CF93DF9390E0FC01E056FE4F2491A4
:10163000FC01EA51FE4F8491882349F190E0880F24
:10164000991FFC01EA5BFD4FA591B491845D9D4F0C
:10165000FC01C591D4919FB7611108C0F8948C9199
:10166000209582238C93888182230AC0623051F4B2
:10167000F8948C91322F309583238C938881822B20
:10168000888304C0F8948C91822B8C939FBFDF9148
:10169000CF9108950F931F93CF93DF931F92CDB7F0
:1016A000DEB7282F30E0F901E65AFE4F8491F901A8
:1016B000E056FE4F1491F901EA51FE4F04910023C8
:1016C000C1F0882319F0698359DF6981E02FF0E0C8
:1016D000EE0FFF1FE45DFD4FA591B4919FB7F89405
:1016E0008C91611103C01095812301C0812B8C93D3
:1016F0009FBF0F90DF91CF911F910F910895FC0133
:10170000818D228D90E0805C9F4F821B91098F73A9
:1017100099270895FC01918D828D981731F0828D63
:10172000E80FF11D858D90E008958FEF9FEF0895EC
:10173000FC01918D828D981761F0828DDF01A80FD9
:10174000B11D5D968C91928D9F5F9F73928F90E0FB
:1017500008958FEF9FEF08958CE49DE0892B39F079
:1017600080E090E0892B19F097D1811124C087EF98
:101770009DE0892B39F080E090E0892B19F037D279
:1017800081111CC080E090E0892B41F080E090E066
:10179000892B21F00E940000811113C080E090E0AD
:1017A000892BA1F080E090E0892B81F00E9400005D
:1017B00081110AC008950E940000D9CF0E94000044
:1017C000E1CF0E940000EACF0C9400000895FC01D4
:1017D000848DDF01A80FB11DA35ABF4F2C91848DBA
:1017E00090E001968F739927848FA689B7892C93EF
:1017F000A089B1898C9180648C93938D848D98138A
:1018000006C00288F389E02D80818F7D8083089552
:10181000CF93DF93EC01888D8823C1F0EA89FB899F
:10182000808185FD05C0A889B9898C9186FD0EC08F
:101830000FB607FCF5CF808185FFF2CFA889B98963
:101840008C9185FFEDCFCE01C2DFE8CFDF91CF9144
:101850000895CF92DF92FF920F931F93CF93DF9360
:101860001F92CDB7DEB76C0181E0D60158968C93FC
:1018700058975B969C915B975C968C915C979813BC
:1018800007C05096ED91FC915197808185FD2DC048
:10189000F601038D10E00F5F1F4F0F731127F02E1D
:1018A000F601848DF81210C00FB607FCF9CFD601EF
:1018B0005096ED91FC915197808185FFF1CFC60143
:1018C000698385DF6981ECCF838DE80FF11DE35AD1
:1018D000FF4F6083D6015B960C935B975296ED9118
:1018E000FC915397808180620CC0D6015696ED9191
:1018F000FC91579760835096ED91FC9151978081B0
:101900008064808381E090E00F90DF91CF911F9100
:101910000F91FF90DF90CF900895BF92CF92DF920A
:10192000EF92FF92CF93DF93EC016A017B01B22E1D
:10193000E889F98982E08083411581EE58076105C5
:10194000710599F060E079E08DE390E0A7019601E0
:1019500031D521503109410951095695479537959F
:101960002795211580E1380790F0E889F9891082E0
:1019700060E874E88EE190E0A70196011BD5215044
:101980003109410951095695479537952795EC85B9
:10199000FD853083EE85FF852083188EEC89FD89D7
:1019A000B082EA89FB89808180618083EA89FB8932
:1019B000808188608083EA89FB8980818068808358
:1019C000EA89FB8980818F7D8083DF91CF91FF90B1
:1019D000EF90DF90CF90BF9008951F920F920FB6B7
:1019E0000F9211240BB60F922F938F939F93EF9327
:1019F000FF93E0916003F09161038081E0916603C1
:101A0000F091670382FD12C09081809169038F5F1E
:101A10008F7320916A03821751F0E0916903F0E01F
:101A2000E05BFC4F958F8093690301C08081FF913B
:101A3000EF919F918F912F910F900BBE0F900FBE42
:101A40000F901F9018951F920F920FB60F921124AE
:101A50000BB60F922F933F934F935F936F937F93A8
:101A60008F939F93AF93BF93EF93FF9380E593E0A2
:101A7000AEDEFF91EF91BF91AF919F918F917F91DA
:101A80006F915F914F913F912F910F900BBE0F90EF
:101A90000FBE0F901F90189580E593E030DE21E097
:101AA000892B09F420E0822F08951092530310929D
:101AB000520388EE93E0A0E0B0E08093540390934B
:101AC0005503A0935603B093570385E892E0909393
:101AD00051038093500385EC90E090935D038093D5
:101AE0005C0384EC90E090935F0380935E0380EC52
:101AF00090E0909361038093600381EC90E0909379
:101B000063038093620382EC90E09093650380937B
:101B1000640386EC90E090936703809366031092D1
:101B2000690310926A0310926B0310926C0308957C
:101B30001F920F920FB60F9211240BB60F922F9394
:101B40008F939F93EF93FF93E091FD03F091FE033A
:101B50008081E0910304F091040482FD12C0908121
:101B6000809106048F5F8F7320910704821751F0D4
:101B7000E0910604F0E0E351FC4F958F809306045A
:101B800001C08081FF91EF919F918F912F910F90D4
:101B90000BBE0F900FBE0F901F9018951F920F92C3
:101BA0000FB60F9211240BB60F922F933F934F93C2
:101BB0005F936F937F938F939F93AF93BF93EF93B5
:101BC000FF938DEE93E003DEFF91EF91BF91AF9114
:101BD0009F918F917F916F915F914F913F912F9145
:101BE0000F900BBE0F900FBE0F901F9018958DEEAB
:101BF00093E085DD21E0892B09F420E0822F089510
:101C00001092F0031092EF0388EE93E0A0E0B0E0B2
:101C10008093F1039093F203A093F303B093F40342
:101C200085E892E09093EE038093ED038DEC90E0D5
:101C30009093FA038093F9038CEC90E09093FC036B
:101C40008093FB0388EC90E09093FE038093FD0368
:101C500089EC90E0909300048093FF038AEC90E07D
:101C600090930204809301048EEC90E0909304041E
:101C70008093030410920604109207041092080443
:101C8000109209040895CF92DF92EF92FF920F9382
:101C90001F93CF93DF937C016A01EB0100E010E01A
:101CA0000C151D0571F06991D701ED91FC91019022
:101CB000F081E02DC7011995892B19F00F5F1F4F97
:101CC000EFCFC801DF91CF911F910F91FF90EF905F
:101CD000DF90CF9008956115710581F0DB010D90C3
:101CE0000020E9F7AD0141505109461B570BDC01BB
:101CF000ED91FC910280F381E02D199480E090E059
:101D00000895DC01ED91FC91DB0114964D915C91FD
:101D100015976D917C910280F381E02D1994DBCFB2
:101D2000DC01ED91FC910190F081E02D199461E9C5
:101D300072E0D1CF0F931F93CF93DF93EC01E1DFDC
:101D40008C01CE01F4DF800F911FDF91CF911F91A5
:101D50000F9108950F931F93CF93DF93EC01BBDF97
:101D60008C01CE01E4DF800F911FDF91CF911F9195
:101D70000F9108950F931F93CF93DF93EC01D0DF62
:101D80008C01CE01D4DF800F911FDF91CF911F9185
:101D90000F9108958F929F92AF92BF92CF92DF9250
:101DA000EF92FF920F931F93CF93DF93CDB7DEB7E0
:101DB000A1970FB6F894DEBF0FBECDBF7C01C42E35
:101DC000E52FCB01D22E19A221E02D1510F02AE02B
:101DD000D22E8E010F5D1F4F8D2C912CA12CB12C7A
:101DE0006C2D7E2FA5019401E5D28C2DD29E8019F9
:101DF0001124015011098A3014F4805D01C0895CFE
:101E0000F8018083211531054105510521F0C22ECD
:101E1000E32FCA01E5CFB801C7015DDFA1960FB678
:101E2000F894DEBF0FBECDBFDF91CF911F910F9110
:101E3000FF90EF90DF90CF90BF90AF909F908F90EA
:101E40000895CF92DF92EF92FF920F931F93CF935B
:101E5000DF93EC016A017B012115310579F4E881FA
:101E6000F9810190F081E02D642FDF91CF911F91D6
:101E70000F91FF90EF90DF90CF9019942A303105A9
:101E8000D9F477FF18C06DE24BDF8C01442755274A
:101E9000BA014C195D096E097F092AE0CE017ADF8B
:101EA000800F911FDF91CF911F910F91FF90EF90C5
:101EB000DF90CF9008952AE0B701A601CE01DF910F
:101EC000CF911F910F91FF90EF90DF90CF9062CF55
:101ED0009A01AB01662757FD6095762FB2CF0F931D
:101EE0001F93CF93DF93EC019A01AB01662757FD57
:101EF0006095762FA6DF8C01CE0119DF800F911F30
:101F0000DF91CF911F910F910895FC018081918104
:101F100070C3CF93DF93EC0188819981009709F01A
:101F200068D3198218821D821C821B821A82DF915B
:101F3000CF9108950F931F93CF93DF93EC018B0103
:101F40006F5F7F4F88819981E3D3009731F0998348
:101F500088831B830A8381E001C080E0DF91CF91F9
:101F60001F910F910895CF93DF93EC0188819981A0
:101F7000892B29F08A819B818617970758F4CE0117
:101F8000D9DF882341F08C819D81892B19F4E88168
:101F9000F981108281E0DF91CF910895EF92FF9255
:101FA0000F931F93CF93DF93EC017B018A01BA015A
:101FB000DADF811103C0CE01ACDF06C01D830C83C4
:101FC000B70188819981AED4CE01DF91CF911F9165
:101FD0000F91FF90EF900895CF93DF93EC01FB01F9
:101FE0008617970751F0608171816115710521F0A5
:101FF00044815581D3DF01C08CDFCE01DF91CF91C9
:102000000895FC01118210821382128215821482BB
:10201000E3CFCF93DF93EC016115710559F0FB011C
:1020200001900020E9F7AF0141505109461B570BC1
:10203000B5DF01C06EDFCE01DF91CF910895EF9241
:10204000FF920F931F93CF93DF93CDB7DEB7A19786
:102050000FB6F894DEBF0FBECDBF7C01CB01BA0135
:10206000F70111821082138212821582148242E0DB
:10207000420F8E010F5F1F4F04D2BC01C701C9DFA1
:10208000A1960FB6F894DEBF0FBECDBFDF91CF9102
:102090001F910F91FF90EF900895EF92FF920F9391
:1020A0001F93CF93DF93EC017B010C811D816115A0
:1020B000710511F480E014C04115510581F0040F41
:1020C000151FB80150DF8823A9F3288139818C813D
:1020D0009D81B701820F931F25D41D830C8381E05E
:1020E000DF91CF911F910F91FF90EF900895CF93C3
:1020F000DF93EC01FB014481558160817181CDDF6B
:10210000811102C0CE0105DFCE01DF91CF9108958C
:10211000CF93DF93EC016115710561F0FB01019034
:102120000020E9F7AF0141505109461B570BB5DFBD
:10213000811102C0CE01EDDECE01DF91CF91089575
:10214000089595D9FDDF0E94EF01CCEADBE00E9403
:1021500099042097E1F300DBFACF08950CD0BAC0C0
:10216000B2D040F0A9D030F021F45F3F19F09BC00D
:102170005111E4C09EC0BFD098F39923C9F35523F1
:10218000B1F3951B550BBB27AA276217730784076A
:1021900038F09F5F5F4F220F331F441FAA1FA9F320
:1021A00033D00E2E3AF0E0E830D091505040E69512
:1021B000001CCAF729D0FE2F27D0660F771F881F73
:1021C000BB1F261737074807AB07B0E809F0BB0B62
:1021D000802DBF01FF2793585F4F2AF09E3F510586
:1021E00068F061C0ABC05F3FECF3983EDCF38695CE
:1021F00077956795B795F7959F5FC9F7880F911DFC
:102200009695879597F90895E1E0660F771F881FE7
:10221000BB1F621773078407BA0720F0621B730B9A
:10222000840BBA0BEE1F88F7E0950895E89409C077
:1022300097FB3EF490958095709561957F4F8F4FF9
:102240009F4F9923A9F0F92F96E9BB279395F6950F
:10225000879577956795B795F111F8CFFAF4BB0F8D
:1022600011F460FF1BC06F5F7F4F8F4F9F4F16C0F1
:10227000882311F096E911C0772321F09EE8872F7B
:10228000762F05C0662371F096E8862F70E060E037
:102290002AF09A95660F771F881FDAF7880F9695B0
:1022A000879597F9089597F99F6780E870E060E057
:1022B00008959FEF80EC089500240A9416161706DF
:1022C00018060906089500240A9412161306140627
:1022D00005060895092E0394000C11F4882352F08A
:1022E000BB0F40F4BF2B11F460FF04C06F5F7F4F42
:1022F0008F4F9F4F089557FD9058440F551F59F029
:102300005F3F71F04795880F97FB991F61F09F3FE2
:1023100079F087950895121613061406551FF2CF0B
:102320004695F1DF08C0161617061806991FF1CF5B
:1023300086957105610508940895E894BB27662782
:102340007727CB0197F90895DB018F939F9376D080
:10235000BF91AF91A29F800D911DA39F900DB29F41
:10236000900D11240895AA1BBB1B51E107C0AA1FA1
:10237000BB1FA617B70710F0A61BB70B881F991F26
:102380005A95A9F780959095BC01CD01089597FBCA
:10239000072E16F4009406D077FD08D0E4DF07FC82
:1023A00005D03EF4909581959F4F08957095619565
:1023B0007F4F0895A1E21A2EAA1BBB1BFD010DC081
:1023C000AA1FBB1FEE1FFF1FA217B307E407F507E5
:1023D00020F0A21BB30BE40BF50B661F771F881FC1
:1023E000991F1A9469F760957095809590959B0157
:1023F000AC01BD01CF010895052E97FB16F40094A2
:102400000FD057FD05D0D6DF07FC02D046F408C038
:1024100050954095309521953F4F4F4F5F4F089510
:1024200090958095709561957F4F8F4F9F4F089540
:10243000EE0FFF1F0590F491E02D199413D0A59F86
:10244000900DB49F900DA49F800D911D11240895AF
:10245000B7FFF4CFF3DF821B930B08950790F6913B
:10246000E02D1994A29FB001B39FC001A39F700DEE
:10247000811D1124911DB29F700D811D1124911D8C
:102480000895EF920F931F93CF93DF93E80147FFD7
:1024900002C034E101C034E0E42FFF27E7FDF095EE
:1024A000F7FF03C0F195E195F109E32E022F2E2FDE
:1024B000AE0147D2CE01DF91CF911F910F91EF90E6
:1024C0000895CF93DF938230910510F482E090E07D
:1024D000E0918C04F0918D0420E030E0A0E0B0E0C9
:1024E000309739F14081518148175907B8F04817A2
:1024F000590771F482819381109729F013969C9368
:102500008E9312972CC090938D0480938C0427C0D7
:102510002115310531F04217530718F0A901DB01ED
:1025200001C0EF019A01BD01DF010280F381E02DBE
:10253000D7CF21153105F9F0281B390B243031058F
:1025400080F48A819B816115710521F0FB019383E1
:10255000828304C090938D0480938C04FE01329694
:1025600044C0FE01E20FF31F819391932250310981
:10257000398328833AC020918A0430918B04232B1D
:1025800041F4209102023091030230938B04209396
:102590008A0420910002309101022115310541F495
:1025A0002DB73EB74091040250910502241B350B14
:1025B000E0918A04F0918B04E217F307A0F42E1B3C
:1025C0003F0B2817390778F0AC014E5F5F4F241797
:1025D000350748F04E0F5F1F50938B0440938A04D9
:1025E0008193919302C0E0E0F0E0CF01DF91CF91C1
:1025F0000895CF93DF93009709F487C0FC013297C9
:1026000013821282C0918C04D0918D04209781F4A2
:1026100020813181280F391F80918A0490918B0489
:102620008217930779F5F0938B04E0938A046DC0C9
:10263000DE0120E030E0AE17BF0750F412964D9156
:102640005C9113979D014115510509F1DA01F3CF12
:10265000B383A28340815181840F951F8A179B0702
:1026600071F48D919C911197840F951F029691831F
:10267000808312968D919C91139793838283211569
:10268000310529F4F0938D04E0938C043EC0D90108
:102690001396FC93EE9312974D915D91A40FB51F85
:1026A000EA17FB0779F480819181840F951F0296C8
:1026B000D90111969C938E938281938113969C935A
:1026C0008E931297E0E0F0E08A819B81009719F0E9
:1026D000FE01EC01F9CFCE01029628813981820FEB
:1026E000931F20918A0430918B042817390769F4CD
:1026F000309729F410928D0410928C0402C013823A
:102700001282D0938B04C0938A04DF91CF910895F5
:102710006F927F928F929F92AF92BF92CF92DF92F1
:10272000EF92FF920F931F93CF93DF93EC01CB01B6
:10273000209779F4DF91CF911F910F91FF90EF9047
:10274000DF90CF90BF90AF909F908F907F906F90D1
:10275000B8CEFE01E60FF71F9E0122503109E217A5
:10276000F30708F4A8C0D9010D911C911197061721
:102770001707B0F00530110508F49BC0A8014450BC
:1027800051094617570708F494C002501109061B57
:10279000170B019311936D937C93CF012ADF89C0AE
:1027A0005B01A01AB10A4E01800E911EA0918C040B
:1027B000B0918D04612C712C60E070E0109709F4E9
:1027C00049C0A815B905C9F5ED90FC9011976701AE
:1027D00042E0C40ED11CCA14DB0478F147018A1808
:1027E0009B08640142E0C40ED11C1296BC90129763
:1027F0001396AC91B5E0CB16D10440F0B282A3831E
:1028000091828082D9018D939C9309C00E5F1F4FE6
:102810000E0D1F1DF90111830083EB2DFA2F611599
:10282000710531F0DB011396FC93EE93129741C0D2
:10283000F0938D04E0938C043CC06D917C911197D2
:102840006616770608F43B01BD0112960D90BC9107
:10285000A02DB4CF60918A0470918B04681579051E
:10286000E9F468167906D0F4409100025091010213
:102870004115510541F44DB75EB760910402709166
:102880000502461B570BE417F507A8F4F0938B04D9
:10289000E0938A04F901918380830BC012DE7C01EE
:1028A000009749F0A801BE0134D0CE01A2DEC701D5
:1028B00004C0CE0102C080E090E0DF91CF911F9173
:1028C0000F91FF90EF90DF90CF90BF90AF909F90CF
:1028D0008F907F906F900895FC0188279927E89446
:1028E00021912032E9F3293010F02E30C8F32B3239
:1028F00039F02D3231F4689403C01BD0820F911D42
:10290000219120532A30C8F31EF4909581959F4F52
:102910000895FB01DC0102C001900D92415050402E
:10292000D8F70895FB01DC0101900D920020E1F73A
:1029300008957AE0979F902D879F802D910D112407
:1029400008956F927F929F92AF92BF92CF92DF9243
:10295000EF92FF920F931F93CF93DF93CDB7DEB724
:1029600029970FB6F894DEBF0FBECDBF6A01B22E15
:10297000102F0C3320F4FF24F394F00E02C04CE32C
:10298000F42E0F2D27E0AE014F5F5F4F57D17981B5
:10299000272F2970213031F0E1FC06C0E0FC06C091
:1029A00060E005C06DE203C06BE201C060E2AE2DE5
:1029B000A07173FF36C0662311F084E001C083E08C
:1029C0008B1510F4B81A01C0B12CA1110BC0F6017F
:1029D0008B2D90E2882319F091938150FBCFCB0C83
:1029E000D11CB12C662331F0F601608396012F5F74
:1029F0003F4F6901C6010396E2FE05C02EE4F601D1
:102A0000208331E404C02EE6F601208331E63183D1
:102A10002283FC012B2D30E22223F1F1319321504E
:102A2000FBCF72FF40C0662311F084E001C083E059
:102A30008B1510F4B81A01C0B12CA1110BC0F6010E
:102A40008B2D90E2882319F091938150FBCFCB0C12
:102A5000D11CB12C662331F0F601608396012F5F03
:102A60003F4F6901C6010396E2FE07C029E4F60163
:102A700020832EE4218326E406C029E6F601208384
:102A80002EE6218326E62283FC012B2D30E2222331
:102A900019F031932150FBCFFC01EB0DF11D108299
:102AA0008EEF9FEFB7C0B1E0611101C0B0E04B2FD6
:102AB00050E01816190624F49C012F5F3F4F02C006
:102AC00021E030E0240F351F112329F0412F50E081
:102AD0004F5F5F4F02C040E050E0420F531F2B2D6D
:102AE00030E04217530714F4B41A01C0B12C2E2D54
:102AF000287159F4F6012B2D30E2222319F031937D
:102B00002150FBCFCB0CD11CB12CBB2331F0F601F3
:102B1000608396012F5F3F4F6901A1110BC0F60141
:102B20002B2D30E3222319F031932150FBCFCB0C16
:102B3000D11CB12CF80E0A81372F3071A32E74FFEF
:102B400003C0013309F4FA941F142CF42F2D2930FB
:102B500018F028E001C021E0682F392F97FF02C04C
:102B600060E030E0462F532F612C712C3EE2932E13
:102B7000BC01621B71099B01DC01A41BB50BE1E0E8
:102B8000F0E0EC0FFD1FAE0FBF1FE12EF12CF19412
:102B9000E194F1084F3FFFEF5F0731F4F6019082B7
:102BA000B6016F5F7F4F6B01841795074CF02417B8
:102BB000350734F4BD01660D771DFB01118101C09D
:102BC00010E341505109FFEF6F1A7F0AB6016F5FA2
:102BD0007F4F4E155F0524F0F60110836B01DACFAD
:102BE0004817590739F4063320F4053319F4A110B6
:102BF00001C011E3F6011083FB018B2D90E28823C5
:102C000019F091938150FBCFFB01EB0DF11D108268
:102C100080E090E029960FB6F894DEBF0FBECDBFDE
:102C2000DF91CF911F910F91FF90EF90DF90CF90A8
:102C3000BF90AF909F907F906F900895283008F0DC
:102C400027E03327DA01990F311D87FD9160009647
:102C50006105710539F432602E5F3D9330E32A95AA
:102C6000E1F708959F3F30F080387105610509F064
:102C70003C5F3C5F3D93913008F08068911DDF938D
:102C8000CF931F930F93FF92EF92192F987F9695F2
:102C9000E92F96959695E90FFF27E654FD4F992762
:102CA0003327EE24FF24A701E70105900894079439
:102CB00028F4360FE71EF81E491F511D660F771FB7
:102CC000881F991F0694A1F70590079428F4E70E32
:102CD000F81E491F561FC11D770F881F991F661FB9
:102CE0000694A1F70590079428F4F80E491F561F83
:102CF000C71FD11D880F991F661F771F0694A1F764
:102D00000590079420F4490F561FC71FD81F990F2D
:102D1000661F771F881F0694A9F784911095177076
:102D200041F0D695C79557954795F794E7941A952E
:102D3000C1F7E0E6F2E06894159015913591659140
:102D4000959105907FE27395E118F10A430B560BBC
:102D5000C90BD009C0F7E10CF11E431F561FC91F54
:102D6000D01D7EF4703311F48A95E6CFE8940150BB
:102D700030F0080F0AF40027021708F4202F2395DB
:102D8000022F7A3328F079E37D932A95E9F710C072
:102D90007D932A9589F606949795679537951795AB
:102DA0001794E118F10A430B560BC90BD00998F0A0
:102DB00023957E9173957A3308F070E37C9320130A
:102DC000B8F77E9170617D9330F0839571E37D93C8
:102DD00070E32A95E1F71124EF90FF900F911F9176
:102DE000CF91DF91992787FD90950895F894FFCFB3
:102DF00000008E0480000164000D020002000258F1
:102E00000201415445300041542B434D47463D316A
:102E10000041542B434E4D493D322C322C302C3046
:102E20002C300041542B434D47533D223939363124
:102E3000313636333636220D003B00580059005AE1
:102E4000004750524D43004750474741004E004E07
:102E50004E4500454E4500455345005353450053EC
:102E6000005353570057535700574E57004E4E5775
:102E70000000000000290C430E7F0B980B8A0B0802
:102E80000C0D0A006E616E00696E66006F7666005A
:022E90002E0012
:00000001FF
